{
  "_format": "hh-sol-artifact-1",
  "contractName": "Gov",
  "sourceName": "contracts/Gov.sol",
  "abi": [
    {
      "inputs": [
        {
          "internalType": "contract IVotes",
          "name": "_token",
          "type": "address"
        },
        {
          "internalType": "contract TimelockController",
          "name": "_timelock",
          "type": "address"
        },
        {
          "internalType": "string",
          "name": "_name",
          "type": "string"
        },
        {
          "internalType": "uint256",
          "name": "_voting_delay",
          "type": "uint256"
        },
        {
          "internalType": "uint256",
          "name": "_voting_period",
          "type": "uint256"
        },
        {
          "internalType": "uint256",
          "name": "_quorum_fraction",
          "type": "uint256"
        },
        {
          "internalType": "uint256",
          "name": "_proposal_threshold",
          "type": "uint256"
        }
      ],
      "stateMutability": "nonpayable",
      "type": "constructor"
    },
    {
      "inputs": [],
      "name": "Empty",
      "type": "error"
    },
    {
      "anonymous": false,
      "inputs": [
        {
          "indexed": false,
          "internalType": "uint256",
          "name": "proposalId",
          "type": "uint256"
        }
      ],
      "name": "ProposalCanceled",
      "type": "event"
    },
    {
      "anonymous": false,
      "inputs": [
        {
          "indexed": false,
          "internalType": "uint256",
          "name": "proposalId",
          "type": "uint256"
        },
        {
          "indexed": false,
          "internalType": "address",
          "name": "proposer",
          "type": "address"
        },
        {
          "indexed": false,
          "internalType": "address[]",
          "name": "targets",
          "type": "address[]"
        },
        {
          "indexed": false,
          "internalType": "uint256[]",
          "name": "values",
          "type": "uint256[]"
        },
        {
          "indexed": false,
          "internalType": "string[]",
          "name": "signatures",
          "type": "string[]"
        },
        {
          "indexed": false,
          "internalType": "bytes[]",
          "name": "calldatas",
          "type": "bytes[]"
        },
        {
          "indexed": false,
          "internalType": "uint256",
          "name": "startBlock",
          "type": "uint256"
        },
        {
          "indexed": false,
          "internalType": "uint256",
          "name": "endBlock",
          "type": "uint256"
        },
        {
          "indexed": false,
          "internalType": "string",
          "name": "description",
          "type": "string"
        }
      ],
      "name": "ProposalCreated",
      "type": "event"
    },
    {
      "anonymous": false,
      "inputs": [
        {
          "indexed": false,
          "internalType": "uint256",
          "name": "proposalId",
          "type": "uint256"
        }
      ],
      "name": "ProposalExecuted",
      "type": "event"
    },
    {
      "anonymous": false,
      "inputs": [
        {
          "indexed": false,
          "internalType": "uint256",
          "name": "proposalId",
          "type": "uint256"
        },
        {
          "indexed": false,
          "internalType": "uint256",
          "name": "eta",
          "type": "uint256"
        }
      ],
      "name": "ProposalQueued",
      "type": "event"
    },
    {
      "anonymous": false,
      "inputs": [
        {
          "indexed": false,
          "internalType": "uint256",
          "name": "oldProposalThreshold",
          "type": "uint256"
        },
        {
          "indexed": false,
          "internalType": "uint256",
          "name": "newProposalThreshold",
          "type": "uint256"
        }
      ],
      "name": "ProposalThresholdSet",
      "type": "event"
    },
    {
      "anonymous": false,
      "inputs": [
        {
          "indexed": false,
          "internalType": "uint256",
          "name": "oldQuorumNumerator",
          "type": "uint256"
        },
        {
          "indexed": false,
          "internalType": "uint256",
          "name": "newQuorumNumerator",
          "type": "uint256"
        }
      ],
      "name": "QuorumNumeratorUpdated",
      "type": "event"
    },
    {
      "anonymous": false,
      "inputs": [
        {
          "indexed": false,
          "internalType": "address",
          "name": "oldTimelock",
          "type": "address"
        },
        {
          "indexed": false,
          "internalType": "address",
          "name": "newTimelock",
          "type": "address"
        }
      ],
      "name": "TimelockChange",
      "type": "event"
    },
    {
      "anonymous": false,
      "inputs": [
        {
          "indexed": true,
          "internalType": "address",
          "name": "voter",
          "type": "address"
        },
        {
          "indexed": false,
          "internalType": "uint256",
          "name": "proposalId",
          "type": "uint256"
        },
        {
          "indexed": false,
          "internalType": "uint8",
          "name": "support",
          "type": "uint8"
        },
        {
          "indexed": false,
          "internalType": "uint256",
          "name": "weight",
          "type": "uint256"
        },
        {
          "indexed": false,
          "internalType": "string",
          "name": "reason",
          "type": "string"
        }
      ],
      "name": "VoteCast",
      "type": "event"
    },
    {
      "anonymous": false,
      "inputs": [
        {
          "indexed": true,
          "internalType": "address",
          "name": "voter",
          "type": "address"
        },
        {
          "indexed": false,
          "internalType": "uint256",
          "name": "proposalId",
          "type": "uint256"
        },
        {
          "indexed": false,
          "internalType": "uint8",
          "name": "support",
          "type": "uint8"
        },
        {
          "indexed": false,
          "internalType": "uint256",
          "name": "weight",
          "type": "uint256"
        },
        {
          "indexed": false,
          "internalType": "string",
          "name": "reason",
          "type": "string"
        },
        {
          "indexed": false,
          "internalType": "bytes",
          "name": "params",
          "type": "bytes"
        }
      ],
      "name": "VoteCastWithParams",
      "type": "event"
    },
    {
      "anonymous": false,
      "inputs": [
        {
          "indexed": false,
          "internalType": "uint256",
          "name": "oldVotingDelay",
          "type": "uint256"
        },
        {
          "indexed": false,
          "internalType": "uint256",
          "name": "newVotingDelay",
          "type": "uint256"
        }
      ],
      "name": "VotingDelaySet",
      "type": "event"
    },
    {
      "anonymous": false,
      "inputs": [
        {
          "indexed": false,
          "internalType": "uint256",
          "name": "oldVotingPeriod",
          "type": "uint256"
        },
        {
          "indexed": false,
          "internalType": "uint256",
          "name": "newVotingPeriod",
          "type": "uint256"
        }
      ],
      "name": "VotingPeriodSet",
      "type": "event"
    },
    {
      "inputs": [],
      "name": "BALLOT_TYPEHASH",
      "outputs": [
        {
          "internalType": "bytes32",
          "name": "",
          "type": "bytes32"
        }
      ],
      "stateMutability": "view",
      "type": "function"
    },
    {
      "inputs": [],
      "name": "COUNTING_MODE",
      "outputs": [
        {
          "internalType": "string",
          "name": "",
          "type": "string"
        }
      ],
      "stateMutability": "pure",
      "type": "function"
    },
    {
      "inputs": [],
      "name": "EXTENDED_BALLOT_TYPEHASH",
      "outputs": [
        {
          "internalType": "bytes32",
          "name": "",
          "type": "bytes32"
        }
      ],
      "stateMutability": "view",
      "type": "function"
    },
    {
      "inputs": [
        {
          "internalType": "uint256",
          "name": "proposalId",
          "type": "uint256"
        },
        {
          "internalType": "uint8",
          "name": "support",
          "type": "uint8"
        }
      ],
      "name": "castVote",
      "outputs": [
        {
          "internalType": "uint256",
          "name": "",
          "type": "uint256"
        }
      ],
      "stateMutability": "nonpayable",
      "type": "function"
    },
    {
      "inputs": [
        {
          "internalType": "uint256",
          "name": "proposalId",
          "type": "uint256"
        },
        {
          "internalType": "uint8",
          "name": "support",
          "type": "uint8"
        },
        {
          "internalType": "uint8",
          "name": "v",
          "type": "uint8"
        },
        {
          "internalType": "bytes32",
          "name": "r",
          "type": "bytes32"
        },
        {
          "internalType": "bytes32",
          "name": "s",
          "type": "bytes32"
        }
      ],
      "name": "castVoteBySig",
      "outputs": [
        {
          "internalType": "uint256",
          "name": "",
          "type": "uint256"
        }
      ],
      "stateMutability": "nonpayable",
      "type": "function"
    },
    {
      "inputs": [
        {
          "internalType": "uint256",
          "name": "proposalId",
          "type": "uint256"
        },
        {
          "internalType": "uint8",
          "name": "support",
          "type": "uint8"
        },
        {
          "internalType": "string",
          "name": "reason",
          "type": "string"
        }
      ],
      "name": "castVoteWithReason",
      "outputs": [
        {
          "internalType": "uint256",
          "name": "",
          "type": "uint256"
        }
      ],
      "stateMutability": "nonpayable",
      "type": "function"
    },
    {
      "inputs": [
        {
          "internalType": "uint256",
          "name": "proposalId",
          "type": "uint256"
        },
        {
          "internalType": "uint8",
          "name": "support",
          "type": "uint8"
        },
        {
          "internalType": "string",
          "name": "reason",
          "type": "string"
        },
        {
          "internalType": "bytes",
          "name": "params",
          "type": "bytes"
        }
      ],
      "name": "castVoteWithReasonAndParams",
      "outputs": [
        {
          "internalType": "uint256",
          "name": "",
          "type": "uint256"
        }
      ],
      "stateMutability": "nonpayable",
      "type": "function"
    },
    {
      "inputs": [
        {
          "internalType": "uint256",
          "name": "proposalId",
          "type": "uint256"
        },
        {
          "internalType": "uint8",
          "name": "support",
          "type": "uint8"
        },
        {
          "internalType": "string",
          "name": "reason",
          "type": "string"
        },
        {
          "internalType": "bytes",
          "name": "params",
          "type": "bytes"
        },
        {
          "internalType": "uint8",
          "name": "v",
          "type": "uint8"
        },
        {
          "internalType": "bytes32",
          "name": "r",
          "type": "bytes32"
        },
        {
          "internalType": "bytes32",
          "name": "s",
          "type": "bytes32"
        }
      ],
      "name": "castVoteWithReasonAndParamsBySig",
      "outputs": [
        {
          "internalType": "uint256",
          "name": "",
          "type": "uint256"
        }
      ],
      "stateMutability": "nonpayable",
      "type": "function"
    },
    {
      "inputs": [
        {
          "internalType": "address[]",
          "name": "targets",
          "type": "address[]"
        },
        {
          "internalType": "uint256[]",
          "name": "values",
          "type": "uint256[]"
        },
        {
          "internalType": "bytes[]",
          "name": "calldatas",
          "type": "bytes[]"
        },
        {
          "internalType": "bytes32",
          "name": "descriptionHash",
          "type": "bytes32"
        }
      ],
      "name": "execute",
      "outputs": [
        {
          "internalType": "uint256",
          "name": "",
          "type": "uint256"
        }
      ],
      "stateMutability": "payable",
      "type": "function"
    },
    {
      "inputs": [
        {
          "internalType": "address",
          "name": "account",
          "type": "address"
        },
        {
          "internalType": "uint256",
          "name": "blockNumber",
          "type": "uint256"
        }
      ],
      "name": "getVotes",
      "outputs": [
        {
          "internalType": "uint256",
          "name": "",
          "type": "uint256"
        }
      ],
      "stateMutability": "view",
      "type": "function"
    },
    {
      "inputs": [
        {
          "internalType": "address",
          "name": "account",
          "type": "address"
        },
        {
          "internalType": "uint256",
          "name": "blockNumber",
          "type": "uint256"
        },
        {
          "internalType": "bytes",
          "name": "params",
          "type": "bytes"
        }
      ],
      "name": "getVotesWithParams",
      "outputs": [
        {
          "internalType": "uint256",
          "name": "",
          "type": "uint256"
        }
      ],
      "stateMutability": "view",
      "type": "function"
    },
    {
      "inputs": [
        {
          "internalType": "uint256",
          "name": "proposalId",
          "type": "uint256"
        },
        {
          "internalType": "address",
          "name": "account",
          "type": "address"
        }
      ],
      "name": "hasVoted",
      "outputs": [
        {
          "internalType": "bool",
          "name": "",
          "type": "bool"
        }
      ],
      "stateMutability": "view",
      "type": "function"
    },
    {
      "inputs": [
        {
          "internalType": "address[]",
          "name": "targets",
          "type": "address[]"
        },
        {
          "internalType": "uint256[]",
          "name": "values",
          "type": "uint256[]"
        },
        {
          "internalType": "bytes[]",
          "name": "calldatas",
          "type": "bytes[]"
        },
        {
          "internalType": "bytes32",
          "name": "descriptionHash",
          "type": "bytes32"
        }
      ],
      "name": "hashProposal",
      "outputs": [
        {
          "internalType": "uint256",
          "name": "",
          "type": "uint256"
        }
      ],
      "stateMutability": "pure",
      "type": "function"
    },
    {
      "inputs": [],
      "name": "name",
      "outputs": [
        {
          "internalType": "string",
          "name": "",
          "type": "string"
        }
      ],
      "stateMutability": "view",
      "type": "function"
    },
    {
      "inputs": [
        {
          "internalType": "address",
          "name": "",
          "type": "address"
        },
        {
          "internalType": "address",
          "name": "",
          "type": "address"
        },
        {
          "internalType": "uint256[]",
          "name": "",
          "type": "uint256[]"
        },
        {
          "internalType": "uint256[]",
          "name": "",
          "type": "uint256[]"
        },
        {
          "internalType": "bytes",
          "name": "",
          "type": "bytes"
        }
      ],
      "name": "onERC1155BatchReceived",
      "outputs": [
        {
          "internalType": "bytes4",
          "name": "",
          "type": "bytes4"
        }
      ],
      "stateMutability": "nonpayable",
      "type": "function"
    },
    {
      "inputs": [
        {
          "internalType": "address",
          "name": "",
          "type": "address"
        },
        {
          "internalType": "address",
          "name": "",
          "type": "address"
        },
        {
          "internalType": "uint256",
          "name": "",
          "type": "uint256"
        },
        {
          "internalType": "uint256",
          "name": "",
          "type": "uint256"
        },
        {
          "internalType": "bytes",
          "name": "",
          "type": "bytes"
        }
      ],
      "name": "onERC1155Received",
      "outputs": [
        {
          "internalType": "bytes4",
          "name": "",
          "type": "bytes4"
        }
      ],
      "stateMutability": "nonpayable",
      "type": "function"
    },
    {
      "inputs": [
        {
          "internalType": "address",
          "name": "",
          "type": "address"
        },
        {
          "internalType": "address",
          "name": "",
          "type": "address"
        },
        {
          "internalType": "uint256",
          "name": "",
          "type": "uint256"
        },
        {
          "internalType": "bytes",
          "name": "",
          "type": "bytes"
        }
      ],
      "name": "onERC721Received",
      "outputs": [
        {
          "internalType": "bytes4",
          "name": "",
          "type": "bytes4"
        }
      ],
      "stateMutability": "nonpayable",
      "type": "function"
    },
    {
      "inputs": [
        {
          "internalType": "uint256",
          "name": "proposalId",
          "type": "uint256"
        }
      ],
      "name": "proposalDeadline",
      "outputs": [
        {
          "internalType": "uint256",
          "name": "",
          "type": "uint256"
        }
      ],
      "stateMutability": "view",
      "type": "function"
    },
    {
      "inputs": [
        {
          "internalType": "uint256",
          "name": "proposalId",
          "type": "uint256"
        }
      ],
      "name": "proposalEta",
      "outputs": [
        {
          "internalType": "uint256",
          "name": "",
          "type": "uint256"
        }
      ],
      "stateMutability": "view",
      "type": "function"
    },
    {
      "inputs": [
        {
          "internalType": "uint256",
          "name": "proposalId",
          "type": "uint256"
        }
      ],
      "name": "proposalSnapshot",
      "outputs": [
        {
          "internalType": "uint256",
          "name": "",
          "type": "uint256"
        }
      ],
      "stateMutability": "view",
      "type": "function"
    },
    {
      "inputs": [],
      "name": "proposalThreshold",
      "outputs": [
        {
          "internalType": "uint256",
          "name": "",
          "type": "uint256"
        }
      ],
      "stateMutability": "view",
      "type": "function"
    },
    {
      "inputs": [
        {
          "internalType": "uint256",
          "name": "proposalId",
          "type": "uint256"
        }
      ],
      "name": "proposalVotes",
      "outputs": [
        {
          "internalType": "uint256",
          "name": "againstVotes",
          "type": "uint256"
        },
        {
          "internalType": "uint256",
          "name": "forVotes",
          "type": "uint256"
        },
        {
          "internalType": "uint256",
          "name": "abstainVotes",
          "type": "uint256"
        }
      ],
      "stateMutability": "view",
      "type": "function"
    },
    {
      "inputs": [
        {
          "internalType": "address[]",
          "name": "targets",
          "type": "address[]"
        },
        {
          "internalType": "uint256[]",
          "name": "values",
          "type": "uint256[]"
        },
        {
          "internalType": "bytes[]",
          "name": "calldatas",
          "type": "bytes[]"
        },
        {
          "internalType": "string",
          "name": "description",
          "type": "string"
        }
      ],
      "name": "propose",
      "outputs": [
        {
          "internalType": "uint256",
          "name": "",
          "type": "uint256"
        }
      ],
      "stateMutability": "nonpayable",
      "type": "function"
    },
    {
      "inputs": [
        {
          "internalType": "address[]",
          "name": "targets",
          "type": "address[]"
        },
        {
          "internalType": "uint256[]",
          "name": "values",
          "type": "uint256[]"
        },
        {
          "internalType": "bytes[]",
          "name": "calldatas",
          "type": "bytes[]"
        },
        {
          "internalType": "bytes32",
          "name": "descriptionHash",
          "type": "bytes32"
        }
      ],
      "name": "queue",
      "outputs": [
        {
          "internalType": "uint256",
          "name": "",
          "type": "uint256"
        }
      ],
      "stateMutability": "nonpayable",
      "type": "function"
    },
    {
      "inputs": [
        {
          "internalType": "uint256",
          "name": "blockNumber",
          "type": "uint256"
        }
      ],
      "name": "quorum",
      "outputs": [
        {
          "internalType": "uint256",
          "name": "",
          "type": "uint256"
        }
      ],
      "stateMutability": "view",
      "type": "function"
    },
    {
      "inputs": [],
      "name": "quorumDenominator",
      "outputs": [
        {
          "internalType": "uint256",
          "name": "",
          "type": "uint256"
        }
      ],
      "stateMutability": "view",
      "type": "function"
    },
    {
      "inputs": [
        {
          "internalType": "uint256",
          "name": "blockNumber",
          "type": "uint256"
        }
      ],
      "name": "quorumNumerator",
      "outputs": [
        {
          "internalType": "uint256",
          "name": "",
          "type": "uint256"
        }
      ],
      "stateMutability": "view",
      "type": "function"
    },
    {
      "inputs": [],
      "name": "quorumNumerator",
      "outputs": [
        {
          "internalType": "uint256",
          "name": "",
          "type": "uint256"
        }
      ],
      "stateMutability": "view",
      "type": "function"
    },
    {
      "inputs": [
        {
          "internalType": "address",
          "name": "target",
          "type": "address"
        },
        {
          "internalType": "uint256",
          "name": "value",
          "type": "uint256"
        },
        {
          "internalType": "bytes",
          "name": "data",
          "type": "bytes"
        }
      ],
      "name": "relay",
      "outputs": [],
      "stateMutability": "payable",
      "type": "function"
    },
    {
      "inputs": [
        {
          "internalType": "uint256",
          "name": "newProposalThreshold",
          "type": "uint256"
        }
      ],
      "name": "setProposalThreshold",
      "outputs": [],
      "stateMutability": "nonpayable",
      "type": "function"
    },
    {
      "inputs": [
        {
          "internalType": "uint256",
          "name": "newVotingDelay",
          "type": "uint256"
        }
      ],
      "name": "setVotingDelay",
      "outputs": [],
      "stateMutability": "nonpayable",
      "type": "function"
    },
    {
      "inputs": [
        {
          "internalType": "uint256",
          "name": "newVotingPeriod",
          "type": "uint256"
        }
      ],
      "name": "setVotingPeriod",
      "outputs": [],
      "stateMutability": "nonpayable",
      "type": "function"
    },
    {
      "inputs": [
        {
          "internalType": "uint256",
          "name": "proposalId",
          "type": "uint256"
        }
      ],
      "name": "state",
      "outputs": [
        {
          "internalType": "enum IGovernor.ProposalState",
          "name": "",
          "type": "uint8"
        }
      ],
      "stateMutability": "view",
      "type": "function"
    },
    {
      "inputs": [
        {
          "internalType": "bytes4",
          "name": "interfaceId",
          "type": "bytes4"
        }
      ],
      "name": "supportsInterface",
      "outputs": [
        {
          "internalType": "bool",
          "name": "",
          "type": "bool"
        }
      ],
      "stateMutability": "view",
      "type": "function"
    },
    {
      "inputs": [],
      "name": "timelock",
      "outputs": [
        {
          "internalType": "address",
          "name": "",
          "type": "address"
        }
      ],
      "stateMutability": "view",
      "type": "function"
    },
    {
      "inputs": [],
      "name": "token",
      "outputs": [
        {
          "internalType": "contract IVotes",
          "name": "",
          "type": "address"
        }
      ],
      "stateMutability": "view",
      "type": "function"
    },
    {
      "inputs": [
        {
          "internalType": "uint256",
          "name": "newQuorumNumerator",
          "type": "uint256"
        }
      ],
      "name": "updateQuorumNumerator",
      "outputs": [],
      "stateMutability": "nonpayable",
      "type": "function"
    },
    {
      "inputs": [
        {
          "internalType": "contract TimelockController",
          "name": "newTimelock",
          "type": "address"
        }
      ],
      "name": "updateTimelock",
      "outputs": [],
      "stateMutability": "nonpayable",
      "type": "function"
    },
    {
      "inputs": [],
      "name": "version",
      "outputs": [
        {
          "internalType": "string",
          "name": "",
          "type": "string"
        }
      ],
      "stateMutability": "view",
      "type": "function"
    },
    {
      "inputs": [],
      "name": "votingDelay",
      "outputs": [
        {
          "internalType": "uint256",
          "name": "",
          "type": "uint256"
        }
      ],
      "stateMutability": "view",
      "type": "function"
    },
    {
      "inputs": [],
      "name": "votingPeriod",
      "outputs": [
        {
          "internalType": "uint256",
          "name": "",
          "type": "uint256"
        }
      ],
      "stateMutability": "view",
      "type": "function"
    },
    {
      "stateMutability": "payable",
      "type": "receive"
    }
  ],
  "bytecode": "0x6101606040523480156200001257600080fd5b506040516200457638038062004576833981016040819052620000359162000899565b8582888686858a806200005c6040805180820190915260018152603160f81b602082015290565b815160208084019190912082518383012060e08290526101008190524660a0818152604080517f8b73c3c69bb8fe3d512ecc4cf759cc79239f7b179b0ffacaa9a75d522b39400f81880181905281830187905260608201869052608082019490945230818401528151808203909301835260c00190528051940193909320919290916080523060c0526101205250508251620001029250600091506020840190620007ce565b50620001109050836200015b565b6200011b826200019c565b620001268162000243565b5050506001600160a01b031661014052620001418162000284565b506200014d81620003fc565b505050505050505062000a2d565b60045460408051918252602082018390527fc565b045403dc03c2eea82b81a0465edad9e2e7fc4d97e11421c209da93d7a93910160405180910390a1600455565b60008111620002025760405162461bcd60e51b815260206004820152602760248201527f476f7665726e6f7253657474696e67733a20766f74696e6720706572696f6420604482015266746f6f206c6f7760c81b60648201526084015b60405180910390fd5b60055460408051918252602082018390527f7e3f7f0708a84de9203036abaa450dccc85ad5ff52f78c170f3edb55cf5e8828910160405180910390a1600555565b60065460408051918252602082018390527fccb45da8d5717e6c4544694297c4ba5cf151d455c9bb0ed4fc7a38411bc05461910160405180910390a1600655565b6064811115620003095760405162461bcd60e51b815260206004820152604360248201527f476f7665726e6f72566f74657351756f72756d4672616374696f6e3a2071756f60448201527f72756d4e756d657261746f72206f7665722071756f72756d44656e6f6d696e616064820152623a37b960e91b608482015260a401620001f9565b60006200031562000465565b90508015801590620003275750600954155b15620003a25760096000016040518060400160405280600063ffffffff16815260200162000360846200049d60201b620014c21760201c565b6001600160e01b0390811690915282546001810184556000938452602093849020835194909301519091166401000000000263ffffffff909316929092179101555b620003bd8260096200050c60201b6200152f1790919060201c565b505060408051828152602081018490527f0553476bf02ef2726e8ce5ced78d63e26e602e4a2257b1f559418e24b4633997910160405180910390a15050565b600a54604080516001600160a01b03928316815291831660208301527f08f74ea46ef7894f65eabfb5e6e695de773a000b47c529ab559178069b226401910160405180910390a1600a80546001600160a01b0319166001600160a01b0392909216919091179055565b6009546000901562000496576200048860096200055f60201b620015651760201c565b6001600160e01b0316905090565b5060085490565b60006001600160e01b03821115620005085760405162461bcd60e51b815260206004820152602760248201527f53616665436173743a2076616c756520646f65736e27742066697420696e20326044820152663234206269747360c81b6064820152608401620001f9565b5090565b60008062000549846000016200052d43620005ad60201b620015a31760201c565b62000543866200049d60201b620014c21760201c565b62000614565b6001600160e01b03918216969116945092505050565b80546000908015620005a3576200058b836200057d600184620009ca565b600091825260209091200190565b5464010000000090046001600160e01b0316620005a6565b60005b9392505050565b600063ffffffff821115620005085760405162461bcd60e51b815260206004820152602660248201527f53616665436173743a2076616c756520646f65736e27742066697420696e203360448201526532206269747360d01b6064820152608401620001f9565b8254600090819080156200077057600062000636876200057d600185620009ca565b60408051808201909152905463ffffffff8082168084526401000000009092046001600160e01b031660208401529192509087161015620006ba5760405162461bcd60e51b815260206004820152601760248201527f436865636b706f696e743a20696e76616c6964206b65790000000000000000006044820152606401620001f9565b8563ffffffff16816000015163ffffffff1614156200070f5784620006e6886200057d600186620009ca565b80546001600160e01b03929092166401000000000263ffffffff9092169190911790556200075f565b6040805180820190915263ffffffff80881682526001600160e01b0380881660208085019182528b54600181018d5560008d81529190912094519151909216640100000000029216919091179101555b602001519250839150620007c69050565b50506040805180820190915263ffffffff80851682526001600160e01b0380851660208085019182528854600181018a5560008a8152918220955192519093166401000000000291909316179201919091559050815b935093915050565b828054620007dc90620009f0565b90600052602060002090601f0160209004810192826200080057600085556200084b565b82601f106200081b57805160ff19168380011785556200084b565b828001600101855582156200084b579182015b828111156200084b5782518255916020019190600101906200082e565b50620005089291505b8082111562000508576000815560010162000854565b6001600160a01b03811681146200088057600080fd5b50565b634e487b7160e01b600052604160045260246000fd5b600080600080600080600060e0888a031215620008b557600080fd5b8751620008c2816200086a565b80975050602080890151620008d7816200086a565b60408a01519097506001600160401b0380821115620008f557600080fd5b818b0191508b601f8301126200090a57600080fd5b8151818111156200091f576200091f62000883565b604051601f8201601f19908116603f011681019083821181831017156200094a576200094a62000883565b816040528281528e868487010111156200096357600080fd5b600093505b8284101562000987578484018601518185018701529285019262000968565b82841115620009995760008684830101525b809a50505050505050606088015193506080880151925060a0880151915060c0880151905092959891949750929550565b600082821015620009eb57634e487b7160e01b600052601160045260246000fd5b500390565b600181811c9082168062000a0557607f821691505b6020821081141562000a2757634e487b7160e01b600052602260045260246000fd5b50919050565b60805160a05160c05160e051610100516101205161014051613ae062000a966000396000818161086901528181611fcc01526121c0015260006124e00152600061252f0152600061250a015260006124630152600061248d015260006124b70152613ae06000f3fe60806040526004361061024a5760003560e01c80637b3c71d311610139578063c28bc2fa116100b6578063ea0217cf1161007a578063ea0217cf146107ab578063eb9019d4146107cb578063ece40cc1146107eb578063f23a6e611461080b578063f8ce560a14610837578063fc0c546a1461085757600080fd5b8063c28bc2fa146106cc578063c59057e4146106df578063d33219b4146106ff578063dd4e2ba514610731578063deaaa7cc1461077757600080fd5b8063a890c910116100fd578063a890c9101461062b578063ab58fb8e1461064b578063b58131b01461066b578063bc197c8114610680578063c01f9e37146106ac57600080fd5b80637b3c71d3146105a25780637d5e81e2146105c257806397c3d334146105e25780639a802a6d146105f6578063a7713a701461061657600080fd5b80633932abb1116101c757806354fd4d501161018b57806354fd4d50146104f857806356781388146105225780635f398a141461054257806360c4247f1461056257806370b0f6601461058257600080fd5b80633932abb1146103f75780633bccf4fd1461040c5780633e4f49e61461042c5780634385963214610459578063544ffc9c146104a357600080fd5b8063150b7a021161020e578063150b7a021461032c578063160cbed7146103705780632656227d146103905780632d63f693146103a35780632fe3e261146103c357600080fd5b806301ffc9a71461027257806302a251a3146102a757806303420181146102ca57806306f3f9e6146102ea57806306fdde031461030a57600080fd5b3661026d573061025861088b565b6001600160a01b03161461026b57600080fd5b005b600080fd5b34801561027e57600080fd5b5061029261028d366004612c1b565b6108a4565b60405190151581526020015b60405180910390f35b3480156102b357600080fd5b506102bc6108b5565b60405190815260200161029e565b3480156102d657600080fd5b506102bc6102e5366004612d59565b6108c0565b3480156102f657600080fd5b5061026b610305366004612dff565b6109b8565b34801561031657600080fd5b5061031f610a50565b60405161029e9190612e65565b34801561033857600080fd5b50610357610347366004612e8d565b630a85bd0160e11b949350505050565b6040516001600160e01b0319909116815260200161029e565b34801561037c57600080fd5b506102bc61038b366004613069565b610ae2565b6102bc61039e366004613069565b610ce2565b3480156103af57600080fd5b506102bc6103be366004612dff565b610dcf565b3480156103cf57600080fd5b506102bc7fb3b3f3b703cd84ce352197dcff232b1b5d3cfb2025ce47cf04742d0651f1af8881565b34801561040357600080fd5b506102bc610e06565b34801561041857600080fd5b506102bc6104273660046130f8565b610e11565b34801561043857600080fd5b5061044c610447366004612dff565b610e87565b60405161029e919061315c565b34801561046557600080fd5b50610292610474366004613184565b60008281526007602090815260408083206001600160a01b038516845260030190915290205460ff1692915050565b3480156104af57600080fd5b506104dd6104be366004612dff565b6000908152600760205260409020805460018201546002909201549092565b6040805193845260208401929092529082015260600161029e565b34801561050457600080fd5b506040805180820190915260018152603160f81b602082015261031f565b34801561052e57600080fd5b506102bc61053d3660046131b4565b610e92565b34801561054e57600080fd5b506102bc61055d3660046131e0565b610ebb565b34801561056e57600080fd5b506102bc61057d366004612dff565b610f05565b34801561058e57600080fd5b5061026b61059d366004612dff565b610f9a565b3480156105ae57600080fd5b506102bc6105bd366004613263565b611026565b3480156105ce57600080fd5b506102bc6105dd3660046132bc565b611078565b3480156105ee57600080fd5b5060646102bc565b34801561060257600080fd5b506102bc610611366004613370565b61108f565b34801561062257600080fd5b506102bc6110a6565b34801561063757600080fd5b5061026b6106463660046133c8565b6110d0565b34801561065757600080fd5b506102bc610666366004612dff565b61115c565b34801561067757600080fd5b506102bc6111f6565b34801561068c57600080fd5b5061035761069b3660046133e5565b63bc197c8160e01b95945050505050565b3480156106b857600080fd5b506102bc6106c7366004612dff565b611201565b61026b6106da366004613478565b611230565b3480156106eb57600080fd5b506102bc6106fa366004613069565b611344565b34801561070b57600080fd5b50600a546001600160a01b03165b6040516001600160a01b03909116815260200161029e565b34801561073d57600080fd5b506040805180820190915260208082527f737570706f72743d627261766f2671756f72756d3d666f722c6162737461696e9082015261031f565b34801561078357600080fd5b506102bc7f150214d74d59b7d1e90c73fc22ef3d991dd0a76b046543d4d80ab92d2a50328f81565b3480156107b757600080fd5b5061026b6107c6366004612dff565b61137e565b3480156107d757600080fd5b506102bc6107e63660046134bb565b61140a565b3480156107f757600080fd5b5061026b610806366004612dff565b61142b565b34801561081757600080fd5b506103576108263660046134e7565b63f23a6e6160e01b95945050505050565b34801561084357600080fd5b506102bc610852366004612dff565b6114b7565b34801561086357600080fd5b506107197f000000000000000000000000000000000000000000000000000000000000000081565b600061089f600a546001600160a01b031690565b905090565b60006108af82611608565b92915050565b600061089f60055490565b60008061096461095c7fb3b3f3b703cd84ce352197dcff232b1b5d3cfb2025ce47cf04742d0651f1af888c8c8c8c6040516108fc92919061354f565b60405180910390208b80519060200120604051602001610941959493929190948552602085019390935260ff9190911660408401526060830152608082015260a00190565b6040516020818303038152906040528051906020012061162d565b86868661167b565b90506109aa8a828b8b8b8080601f0160208091040260200160405190810160405280939291908181526020018383808284376000920191909152508d9250611699915050565b9a9950505050505050505050565b6109c061088b565b6001600160a01b0316336001600160a01b0316146109f95760405162461bcd60e51b81526004016109f09061355f565b60405180910390fd5b30610a0261088b565b6001600160a01b031614610a445760008036604051610a2292919061354f565b604051809103902090505b80610a3860026117fb565b14610a4257610a2d565b505b610a4d81611871565b50565b606060008054610a5f90613591565b80601f0160208091040260200160405190810160405280929190818152602001828054610a8b90613591565b8015610ad85780601f10610aad57610100808354040283529160200191610ad8565b820191906000526020600020905b815481529060010190602001808311610abb57829003601f168201915b5050505050905090565b600080610af186868686611344565b90506004610afe82610e87565b6007811115610b0f57610b0f613146565b14610b2c5760405162461bcd60e51b81526004016109f0906135cc565b600a546040805163793d064960e11b815290516000926001600160a01b03169163f27a0c929160048083019260209291908290030181865afa158015610b76573d6000803e3d6000fd5b505050506040513d601f19601f82011682018060405250810190610b9a919061360d565b600a5460405163b1c5f42760e01b81529192506001600160a01b03169063b1c5f42790610bd4908a908a908a906000908b906004016136ef565b602060405180830381865afa158015610bf1573d6000803e3d6000fd5b505050506040513d601f19601f82011682018060405250810190610c15919061360d565b6000838152600b602052604080822092909255600a5491516308f2a0bb60e41b81526001600160a01b0390921691638f2a0bb091610c60918b918b918b91908b90899060040161373d565b600060405180830381600087803b158015610c7a57600080fd5b505af1158015610c8e573d6000803e3d6000fd5b505050507f9a2e42fd6722813d69113e7d0079d3d940171428df7373df9c7f7617cfda2892828242610cc091906137ab565b6040805192835260208301919091520160405180910390a15095945050505050565b600080610cf186868686611344565b90506000610cfe82610e87565b90506004816007811115610d1457610d14613146565b1480610d3157506005816007811115610d2f57610d2f613146565b145b610d4d5760405162461bcd60e51b81526004016109f0906135cc565b600082815260016020818152604092839020600201805460ff191690921790915590518381527f712ae1383f79ac853f8d882153778e0260ef8f03b504e2866e0593e04d2b291f910160405180910390a1610dab82888888886119bd565b610db88288888888611a60565b610dc58288888888611a6d565b5095945050505050565b60008181526001602090815260408083208151928301909152546001600160401b0316908190525b6001600160401b031692915050565b600061089f60045490565b604080517f150214d74d59b7d1e90c73fc22ef3d991dd0a76b046543d4d80ab92d2a50328f602082015290810186905260ff851660608201526000908190610e5f9061095c90608001610941565b9050610e7c87828860405180602001604052806000815250611aa6565b979650505050505050565b60006108af82611ac9565b600080339050610eb384828560405180602001604052806000815250611aa6565b949350505050565b600080339050610e7c87828888888080601f0160208091040260200160405190810160405280939291908181526020018383808284376000920191909152508a9250611699915050565b60095460009080610f1a575050600854919050565b60006009610f296001846137c3565b81548110610f3957610f396137da565b60009182526020918290206040805180820190915291015463ffffffff8116808352600160201b9091046001600160e01b03169282019290925291508410610f8f57602001516001600160e01b03169392505050565b610eb3600985611c13565b610fa261088b565b6001600160a01b0316336001600160a01b031614610fd25760405162461bcd60e51b81526004016109f09061355f565b30610fdb61088b565b6001600160a01b03161461101d5760008036604051610ffb92919061354f565b604051809103902090505b8061101160026117fb565b1461101b57611006565b505b610a4d81611cc5565b60008033905061106e86828787878080601f016020809104026020016040519081016040528093929190818152602001838380828437600092019190915250611aa692505050565b9695505050505050565b600061108685858585611d06565b95945050505050565b600061109c848484611fa3565b90505b9392505050565b600954600090156110c9576110bb6009611565565b6001600160e01b0316905090565b5060085490565b6110d861088b565b6001600160a01b0316336001600160a01b0316146111085760405162461bcd60e51b81526004016109f09061355f565b3061111161088b565b6001600160a01b031614611153576000803660405161113192919061354f565b604051809103902090505b8061114760026117fb565b146111515761113c565b505b610a4d81612039565b600a546000828152600b602052604080822054905163d45c443560e01b81526004810191909152909182916001600160a01b039091169063d45c443590602401602060405180830381865afa1580156111b9573d6000803e3d6000fd5b505050506040513d601f19601f820116820180604052508101906111dd919061360d565b9050806001146111ed578061109f565b60009392505050565b600061089f60065490565b60008181526001602081815260408084208151928301909152909101546001600160401b031690819052610df7565b61123861088b565b6001600160a01b0316336001600160a01b0316146112685760405162461bcd60e51b81526004016109f09061355f565b3061127161088b565b6001600160a01b0316146112b3576000803660405161129192919061354f565b604051809103902090505b806112a760026117fb565b146112b15761129c565b505b600080856001600160a01b03168585856040516112d192919061354f565b60006040518083038185875af1925050503d806000811461130e576040519150601f19603f3d011682016040523d82523d6000602084013e611313565b606091505b509150915061133b8282604051806060016040528060288152602001613a83602891396120a2565b50505050505050565b60008484848460405160200161135d94939291906137f0565b60408051601f19818403018152919052805160209091012095945050505050565b61138661088b565b6001600160a01b0316336001600160a01b0316146113b65760405162461bcd60e51b81526004016109f09061355f565b306113bf61088b565b6001600160a01b03161461140157600080366040516113df92919061354f565b604051809103902090505b806113f560026117fb565b146113ff576113ea565b505b610a4d816120bb565b600061109f838361142660408051602081019091526000815290565b611fa3565b61143361088b565b6001600160a01b0316336001600160a01b0316146114635760405162461bcd60e51b81526004016109f09061355f565b3061146c61088b565b6001600160a01b0316146114ae576000803660405161148c92919061354f565b604051809103902090505b806114a260026117fb565b146114ac57611497565b505b610a4d8161215c565b60006108af8261219d565b60006001600160e01b0382111561152b5760405162461bcd60e51b815260206004820152602760248201527f53616665436173743a2076616c756520646f65736e27742066697420696e20326044820152663234206269747360c81b60648201526084016109f0565b5090565b60008061154d8461153f436115a3565b611548866114c2565b612247565b6001600160e01b0391821693501690505b9250929050565b805460009080156111ed5761158d8361157f6001846137c3565b600091825260209091200190565b54600160201b90046001600160e01b031661109f565b600063ffffffff82111561152b5760405162461bcd60e51b815260206004820152602660248201527f53616665436173743a2076616c756520646f65736e27742066697420696e203360448201526532206269747360d01b60648201526084016109f0565b60006001600160e01b03198216636e665ced60e01b14806108af57506108af826123eb565b60006108af61163a612456565b8360405161190160f01b6020820152602281018390526042810182905260009060620160405160208183030381529060405280519060200120905092915050565b600080600061168c8787878761257d565b91509150610dc581612637565b60008581526001602081905260408220906116b388610e87565b60078111156116c4576116c4613146565b1461171d5760405162461bcd60e51b815260206004820152602360248201527f476f7665726e6f723a20766f7465206e6f742063757272656e746c792061637460448201526269766560e81b60648201526084016109f0565b604080516020810190915281546001600160401b03169081905260009061174690889086611fa3565b90506117558888888488612780565b83516117a757866001600160a01b03167fb8e138887d0aa13bab447e82de9d5c1777041ecd21ca36ba824ff1e6c07ddda48988848960405161179a949392919061383b565b60405180910390a2610e7c565b866001600160a01b03167fe2babfbac5889a709b63bb7f598b324e08bc5a4fb9ec647fb3cbc9ec07eb871289888489896040516117e8959493929190613863565b60405180910390a2979650505050505050565b60006118168254600f81810b600160801b909204900b131590565b1561183457604051631ed9509560e11b815260040160405180910390fd5b508054600f0b6000818152600180840160205260408220805492905583546001600160801b03191692016001600160801b03169190911790915590565b60648111156118f45760405162461bcd60e51b815260206004820152604360248201527f476f7665726e6f72566f74657351756f72756d4672616374696f6e3a2071756f60448201527f72756d4e756d657261746f72206f7665722071756f72756d44656e6f6d696e616064820152623a37b960e91b608482015260a4016109f0565b60006118fe6110a6565b9050801580159061190f5750600954155b1561197357604080518082019091526000815260099060208101611932846114c2565b6001600160e01b039081169091528254600181018455600093845260209384902083519490930151909116600160201b0263ffffffff909316929092179101555b61197e60098361152f565b505060408051828152602081018490527f0553476bf02ef2726e8ce5ced78d63e26e602e4a2257b1f559418e24b4633997910160405180910390a15050565b306119c661088b565b6001600160a01b031614611a595760005b8451811015611a5757306001600160a01b03168582815181106119fc576119fc6137da565b60200260200101516001600160a01b03161415611a4757611a47838281518110611a2857611a286137da565b60200260200101518051906020012060026128ff90919063ffffffff16565b611a50816138a9565b90506119d7565b505b5050505050565b611a59858585858561293b565b30611a7661088b565b6001600160a01b031614611a5957600254600f81810b600160801b909204900b1315611a59576000600255611a59565b600061108685858585611ac460408051602081019091526000815290565b611699565b600080611ad5836129af565b90506004816007811115611aeb57611aeb613146565b14611af65792915050565b6000838152600b602052604090205480611b11575092915050565b600a54604051632ab0f52960e01b8152600481018390526001600160a01b0390911690632ab0f52990602401602060405180830381865afa158015611b5a573d6000803e3d6000fd5b505050506040513d601f19601f82011682018060405250810190611b7e91906138c4565b15611b8d575060079392505050565b600a54604051632c258a9f60e11b8152600481018390526001600160a01b039091169063584b153e90602401602060405180830381865afa158015611bd6573d6000803e3d6000fd5b505050506040513d601f19601f82011682018060405250810190611bfa91906138c4565b15611c09575060059392505050565b5060029392505050565b6000438210611c645760405162461bcd60e51b815260206004820181905260248201527f436865636b706f696e74733a20626c6f636b206e6f7420796574206d696e656460448201526064016109f0565b6000611c6f836115a3565b84549091506000611c8286848385612abb565b90508015611caf57611c998661157f6001846137c3565b54600160201b90046001600160e01b0316611cb2565b60005b6001600160e01b03169695505050505050565b60045460408051918252602082018390527fc565b045403dc03c2eea82b81a0465edad9e2e7fc4d97e11421c209da93d7a93910160405180910390a1600455565b6000611d106111f6565b611d1f336107e66001436137c3565b1015611d875760405162461bcd60e51b815260206004820152603160248201527f476f7665726e6f723a2070726f706f73657220766f7465732062656c6f7720706044820152701c9bdc1bdcd85b081d1a1c995cda1bdb19607a1b60648201526084016109f0565b6000611d9c8686868680519060200120611344565b90508451865114611dbf5760405162461bcd60e51b81526004016109f0906138e6565b8351865114611de05760405162461bcd60e51b81526004016109f0906138e6565b6000865111611e2c5760405162461bcd60e51b815260206004820152601860248201527711dbdd995c9b9bdc8e88195b5c1d1e481c1c9bdc1bdcd85b60421b60448201526064016109f0565b600081815260016020908152604091829020825191820190925281546001600160401b03169081905215611eac5760405162461bcd60e51b815260206004820152602160248201527f476f7665726e6f723a2070726f706f73616c20616c72656164792065786973746044820152607360f81b60648201526084016109f0565b6000611ebe611eb9610e06565b612b19565b611ec743612b19565b611ed19190613927565b90506000611ee0611eb96108b5565b611eea9083613927565b9050611ef68383612b81565b611f036001840182612b81565b7f7d84a6263ae0d98d3329bd7b46bb4e8d6f98cd35a7adb45c274c8b7fd5ebd5e084338b8b8d516001600160401b03811115611f4157611f41612c9c565b604051908082528060200260200182016040528015611f7457816020015b6060815260200190600190039081611f5f5790505b508c88888e604051611f8e99989796959493929190613952565b60405180910390a15091979650505050505050565b604051630748d63560e31b81526001600160a01b038481166004830152602482018490526000917f000000000000000000000000000000000000000000000000000000000000000090911690633a46b1a890604401602060405180830381865afa158015612015573d6000803e3d6000fd5b505050506040513d601f19601f8201168201806040525081019061109c919061360d565b600a54604080516001600160a01b03928316815291831660208301527f08f74ea46ef7894f65eabfb5e6e695de773a000b47c529ab559178069b226401910160405180910390a1600a80546001600160a01b0319166001600160a01b0392909216919091179055565b606083156120b157508161109f565b61109f8383612b9f565b6000811161211b5760405162461bcd60e51b815260206004820152602760248201527f476f7665726e6f7253657474696e67733a20766f74696e6720706572696f6420604482015266746f6f206c6f7760c81b60648201526084016109f0565b60055460408051918252602082018390527f7e3f7f0708a84de9203036abaa450dccc85ad5ff52f78c170f3edb55cf5e8828910160405180910390a1600555565b60065460408051918252602082018390527fccb45da8d5717e6c4544694297c4ba5cf151d455c9bb0ed4fc7a38411bc05461910160405180910390a1600655565b600060646121aa83610f05565b604051632394e7a360e21b8152600481018590527f00000000000000000000000000000000000000000000000000000000000000006001600160a01b031690638e539e8c90602401602060405180830381865afa15801561220f573d6000803e3d6000fd5b505050506040513d601f19601f82011682018060405250810190612233919061360d565b61223d9190613a41565b6108af9190613a60565b82546000908190801561238e5760006122658761157f6001856137c3565b60408051808201909152905463ffffffff808216808452600160201b9092046001600160e01b0316602084015291925090871610156122e05760405162461bcd60e51b8152602060048201526017602482015276436865636b706f696e743a20696e76616c6964206b657960481b60448201526064016109f0565b8563ffffffff16816000015163ffffffff16141561232f57846123088861157f6001866137c3565b80546001600160e01b0392909216600160201b0263ffffffff90921691909117905561237e565b6040805180820190915263ffffffff80881682526001600160e01b0380881660208085019182528b54600181018d5560008d81529190912094519151909216600160201b029216919091179101555b6020015192508391506123e39050565b50506040805180820190915263ffffffff80851682526001600160e01b0380851660208085019182528854600181018a5560008a815291822095519251909316600160201b0291909316179201919091559050815b935093915050565b60006001600160e01b0319821663bf26d89760e01b148061241c57506001600160e01b031982166379dd796f60e01b145b8061243757506001600160e01b03198216630271189760e51b145b806108af57506301ffc9a760e01b6001600160e01b03198316146108af565b6000306001600160a01b037f0000000000000000000000000000000000000000000000000000000000000000161480156124af57507f000000000000000000000000000000000000000000000000000000000000000046145b156124d957507f000000000000000000000000000000000000000000000000000000000000000090565b50604080517f00000000000000000000000000000000000000000000000000000000000000006020808301919091527f0000000000000000000000000000000000000000000000000000000000000000828401527f000000000000000000000000000000000000000000000000000000000000000060608301524660808301523060a0808401919091528351808403909101815260c0909201909252805191012090565b6000806fa2a8918ca85bafe22016d0b997e4df60600160ff1b038311156125aa575060009050600361262e565b6040805160008082526020820180845289905260ff881692820192909252606081018690526080810185905260019060a0016020604051602081039080840390855afa1580156125fe573d6000803e3d6000fd5b5050604051601f1901519150506001600160a01b0381166126275760006001925092505061262e565b9150600090505b94509492505050565b600081600481111561264b5761264b613146565b14156126545750565b600181600481111561266857612668613146565b14156126b15760405162461bcd60e51b815260206004820152601860248201527745434453413a20696e76616c6964207369676e617475726560401b60448201526064016109f0565b60028160048111156126c5576126c5613146565b14156127135760405162461bcd60e51b815260206004820152601f60248201527f45434453413a20696e76616c6964207369676e6174757265206c656e6774680060448201526064016109f0565b600381600481111561272757612727613146565b1415610a4d5760405162461bcd60e51b815260206004820152602260248201527f45434453413a20696e76616c6964207369676e6174757265202773272076616c604482015261756560f01b60648201526084016109f0565b60008581526007602090815260408083206001600160a01b0388168452600381019092529091205460ff16156128085760405162461bcd60e51b815260206004820152602760248201527f476f7665726e6f72566f74696e6753696d706c653a20766f746520616c726561604482015266191e4818d85cdd60ca1b60648201526084016109f0565b6001600160a01b03851660009081526003820160205260408120805460ff1916600117905560ff168460ff161415612859578281600001600082825461284e91906137ab565b90915550611a579050565b60ff841660011415612879578281600101600082825461284e91906137ab565b60ff841660021415612899578281600201600082825461284e91906137ab565b60405162461bcd60e51b815260206004820152603560248201527f476f7665726e6f72566f74696e6753696d706c653a20696e76616c69642076616044820152746c756520666f7220656e756d20566f74655479706560581b60648201526084016109f0565b8154600160801b90819004600f0b6000818152600180860160205260409091209390935583546001600160801b03908116939091011602179055565b600a5460405163e38335e560e01b81526001600160a01b039091169063e38335e59034906129769088908890889060009089906004016136ef565b6000604051808303818588803b15801561298f57600080fd5b505af11580156129a3573d6000803e3d6000fd5b50505050505050505050565b6000818152600160205260408120600281015460ff16156129d35750600792915050565b6002810154610100900460ff16156129ee5750600292915050565b60006129f984610dcf565b905080612a485760405162461bcd60e51b815260206004820152601d60248201527f476f7665726e6f723a20756e6b6e6f776e2070726f706f73616c20696400000060448201526064016109f0565b438110612a59575060009392505050565b6000612a6485611201565b9050438110612a7857506001949350505050565b612a8185612bc9565b8015612aa0575060008581526007602052604090208054600190910154115b15612ab057506004949350505050565b506003949350505050565b60005b81831015612b11576000612ad28484612c00565b60008781526020902090915063ffffffff86169082015463ffffffff161115612afd57809250612b0b565b612b088160016137ab565b93505b50612abe565b509392505050565b60006001600160401b0382111561152b5760405162461bcd60e51b815260206004820152602660248201527f53616665436173743a2076616c756520646f65736e27742066697420696e203660448201526534206269747360d01b60648201526084016109f0565b815467ffffffffffffffff19166001600160401b0391909116179055565b815115612baf5781518083602001fd5b8060405162461bcd60e51b81526004016109f09190612e65565b600081815260076020526040812060028101546001820154612beb91906137ab565b612bf761085285610dcf565b11159392505050565b6000612c0f6002848418613a60565b61109f908484166137ab565b600060208284031215612c2d57600080fd5b81356001600160e01b03198116811461109f57600080fd5b803560ff81168114612c5657600080fd5b919050565b60008083601f840112612c6d57600080fd5b5081356001600160401b03811115612c8457600080fd5b60208301915083602082850101111561155e57600080fd5b634e487b7160e01b600052604160045260246000fd5b604051601f8201601f191681016001600160401b0381118282101715612cda57612cda612c9c565b604052919050565b60006001600160401b03831115612cfb57612cfb612c9c565b612d0e601f8401601f1916602001612cb2565b9050828152838383011115612d2257600080fd5b828260208301376000602084830101529392505050565b600082601f830112612d4a57600080fd5b61109f83833560208501612ce2565b60008060008060008060008060e0898b031215612d7557600080fd5b88359750612d8560208a01612c45565b965060408901356001600160401b0380821115612da157600080fd5b612dad8c838d01612c5b565b909850965060608b0135915080821115612dc657600080fd5b50612dd38b828c01612d39565b945050612de260808a01612c45565b925060a0890135915060c089013590509295985092959890939650565b600060208284031215612e1157600080fd5b5035919050565b6000815180845260005b81811015612e3e57602081850181015186830182015201612e22565b81811115612e50576000602083870101525b50601f01601f19169290920160200192915050565b60208152600061109f6020830184612e18565b6001600160a01b0381168114610a4d57600080fd5b60008060008060808587031215612ea357600080fd5b8435612eae81612e78565b93506020850135612ebe81612e78565b92506040850135915060608501356001600160401b03811115612ee057600080fd5b612eec87828801612d39565b91505092959194509250565b60006001600160401b03821115612f1157612f11612c9c565b5060051b60200190565b600082601f830112612f2c57600080fd5b81356020612f41612f3c83612ef8565b612cb2565b82815260059290921b84018101918181019086841115612f6057600080fd5b8286015b84811015612f84578035612f7781612e78565b8352918301918301612f64565b509695505050505050565b600082601f830112612fa057600080fd5b81356020612fb0612f3c83612ef8565b82815260059290921b84018101918181019086841115612fcf57600080fd5b8286015b84811015612f845780358352918301918301612fd3565b600082601f830112612ffb57600080fd5b8135602061300b612f3c83612ef8565b82815260059290921b8401810191818101908684111561302a57600080fd5b8286015b84811015612f845780356001600160401b0381111561304d5760008081fd5b61305b8986838b0101612d39565b84525091830191830161302e565b6000806000806080858703121561307f57600080fd5b84356001600160401b038082111561309657600080fd5b6130a288838901612f1b565b955060208701359150808211156130b857600080fd5b6130c488838901612f8f565b945060408701359150808211156130da57600080fd5b506130e787828801612fea565b949793965093946060013593505050565b600080600080600060a0868803121561311057600080fd5b8535945061312060208701612c45565b935061312e60408701612c45565b94979396509394606081013594506080013592915050565b634e487b7160e01b600052602160045260246000fd5b602081016008831061317e57634e487b7160e01b600052602160045260246000fd5b91905290565b6000806040838503121561319757600080fd5b8235915060208301356131a981612e78565b809150509250929050565b600080604083850312156131c757600080fd5b823591506131d760208401612c45565b90509250929050565b6000806000806000608086880312156131f857600080fd5b8535945061320860208701612c45565b935060408601356001600160401b038082111561322457600080fd5b61323089838a01612c5b565b9095509350606088013591508082111561324957600080fd5b5061325688828901612d39565b9150509295509295909350565b6000806000806060858703121561327957600080fd5b8435935061328960208601612c45565b925060408501356001600160401b038111156132a457600080fd5b6132b087828801612c5b565b95989497509550505050565b600080600080608085870312156132d257600080fd5b84356001600160401b03808211156132e957600080fd5b6132f588838901612f1b565b9550602087013591508082111561330b57600080fd5b61331788838901612f8f565b9450604087013591508082111561332d57600080fd5b61333988838901612fea565b9350606087013591508082111561334f57600080fd5b508501601f8101871361336157600080fd5b612eec87823560208401612ce2565b60008060006060848603121561338557600080fd5b833561339081612e78565b92506020840135915060408401356001600160401b038111156133b257600080fd5b6133be86828701612d39565b9150509250925092565b6000602082840312156133da57600080fd5b813561109f81612e78565b600080600080600060a086880312156133fd57600080fd5b853561340881612e78565b9450602086013561341881612e78565b935060408601356001600160401b038082111561343457600080fd5b61344089838a01612f8f565b9450606088013591508082111561345657600080fd5b61346289838a01612f8f565b9350608088013591508082111561324957600080fd5b6000806000806060858703121561348e57600080fd5b843561349981612e78565b93506020850135925060408501356001600160401b038111156132a457600080fd5b600080604083850312156134ce57600080fd5b82356134d981612e78565b946020939093013593505050565b600080600080600060a086880312156134ff57600080fd5b853561350a81612e78565b9450602086013561351a81612e78565b9350604086013592506060860135915060808601356001600160401b0381111561354357600080fd5b61325688828901612d39565b8183823760009101908152919050565b602080825260189082015277476f7665726e6f723a206f6e6c79476f7665726e616e636560401b604082015260600190565b600181811c908216806135a557607f821691505b602082108114156135c657634e487b7160e01b600052602260045260246000fd5b50919050565b60208082526021908201527f476f7665726e6f723a2070726f706f73616c206e6f74207375636365737366756040820152601b60fa1b606082015260800190565b60006020828403121561361f57600080fd5b5051919050565b600081518084526020808501945080840160005b8381101561365f5781516001600160a01b03168752958201959082019060010161363a565b509495945050505050565b600081518084526020808501945080840160005b8381101561365f5781518752958201959082019060010161367e565b600081518084526020808501808196508360051b8101915082860160005b858110156136e25782840389526136d0848351612e18565b988501989350908401906001016136b8565b5091979650505050505050565b60a08152600061370260a0830188613626565b8281036020840152613714818861366a565b90508281036040840152613728818761369a565b60608401959095525050608001529392505050565b60c08152600061375060c0830189613626565b8281036020840152613762818961366a565b90508281036040840152613776818861369a565b60608401969096525050608081019290925260a0909101529392505050565b634e487b7160e01b600052601160045260246000fd5b600082198211156137be576137be613795565b500190565b6000828210156137d5576137d5613795565b500390565b634e487b7160e01b600052603260045260246000fd5b6080815260006138036080830187613626565b8281036020840152613815818761366a565b90508281036040840152613829818661369a565b91505082606083015295945050505050565b84815260ff8416602082015282604082015260806060820152600061106e6080830184612e18565b85815260ff8516602082015283604082015260a06060820152600061388b60a0830185612e18565b828103608084015261389d8185612e18565b98975050505050505050565b60006000198214156138bd576138bd613795565b5060010190565b6000602082840312156138d657600080fd5b8151801515811461109f57600080fd5b60208082526021908201527f476f7665726e6f723a20696e76616c69642070726f706f73616c206c656e67746040820152600d60fb1b606082015260800190565b60006001600160401b0380831681851680830382111561394957613949613795565b01949350505050565b60006101208b8352602060018060a01b038c168185015281604085015261397b8285018c613626565b9150838203606085015261398f828b61366a565b915083820360808501528189518084528284019150828160051b850101838c0160005b838110156139e057601f198784030185526139ce838351612e18565b948601949250908501906001016139b2565b505086810360a08801526139f4818c61369a565b945050505050613a0f60c08401876001600160401b03169052565b6001600160401b03851660e0840152828103610100840152613a318185612e18565b9c9b505050505050505050505050565b6000816000190483118215151615613a5b57613a5b613795565b500290565b600082613a7d57634e487b7160e01b600052601260045260246000fd5b50049056fe476f7665726e6f723a2072656c617920726576657274656420776974686f7574206d657373616765a26469706673582212209a4354d51c7637ca98d4b01721ff8f8708b0777096cd6c0b673d706905124dab64736f6c634300080a0033",
  "linkReferences": {},
  "deployedLinkReferences": {}
}