{
  "_format": "hh-sol-artifact-1",
  "contractName": "GovHelper",
  "sourceName": "contracts/GovHelper.sol",
  "abi": [
    {
      "inputs": [
        {
          "internalType": "contract IPoolAddressesProvider",
          "name": "_poolAddressProvider",
          "type": "address"
        },
        {
          "internalType": "contract ISwapRouter",
          "name": "_swapRouter",
          "type": "address"
        },
        {
          "internalType": "contract AggregatorV3Interface",
          "name": "_priceFeedUsdc",
          "type": "address"
        }
      ],
      "stateMutability": "nonpayable",
      "type": "constructor"
    },
    {
      "anonymous": false,
      "inputs": [
        {
          "indexed": false,
          "internalType": "address",
          "name": "tokenIn",
          "type": "address"
        },
        {
          "indexed": false,
          "internalType": "uint256",
          "name": "amountIn",
          "type": "uint256"
        },
        {
          "indexed": false,
          "internalType": "address",
          "name": "borrowToken",
          "type": "address"
        }
      ],
      "name": "NaturalPositionClosed",
      "type": "event"
    },
    {
      "anonymous": false,
      "inputs": [
        {
          "indexed": false,
          "internalType": "address",
          "name": "collateralToken",
          "type": "address"
        },
        {
          "indexed": false,
          "internalType": "uint256",
          "name": "collateralAmount",
          "type": "uint256"
        },
        {
          "indexed": false,
          "internalType": "address",
          "name": "borrowToken",
          "type": "address"
        },
        {
          "indexed": false,
          "internalType": "uint256",
          "name": "borrowAmount",
          "type": "uint256"
        },
        {
          "indexed": false,
          "internalType": "uint256",
          "name": "interestRateMode",
          "type": "uint256"
        },
        {
          "indexed": false,
          "internalType": "int256",
          "name": "price",
          "type": "int256"
        }
      ],
      "name": "NaturalPositionCreated",
      "type": "event"
    },
    {
      "anonymous": false,
      "inputs": [
        {
          "indexed": true,
          "internalType": "address",
          "name": "previousOwner",
          "type": "address"
        },
        {
          "indexed": true,
          "internalType": "address",
          "name": "newOwner",
          "type": "address"
        }
      ],
      "name": "OwnershipTransferred",
      "type": "event"
    },
    {
      "inputs": [
        {
          "internalType": "address",
          "name": "collateralToken",
          "type": "address"
        },
        {
          "internalType": "uint256",
          "name": "collateralAmount",
          "type": "uint256"
        },
        {
          "internalType": "address",
          "name": "borrowToken",
          "type": "address"
        },
        {
          "internalType": "uint256",
          "name": "borrowAmount",
          "type": "uint256"
        },
        {
          "internalType": "uint256",
          "name": "interestRateMode",
          "type": "uint256"
        },
        {
          "internalType": "contract AggregatorV3Interface",
          "name": "priceFeed",
          "type": "address"
        },
        {
          "internalType": "uint24",
          "name": "slippage",
          "type": "uint24"
        },
        {
          "internalType": "uint24",
          "name": "poolFee",
          "type": "uint24"
        }
      ],
      "name": "borrowSwap",
      "outputs": [],
      "stateMutability": "nonpayable",
      "type": "function"
    },
    {
      "inputs": [],
      "name": "owner",
      "outputs": [
        {
          "internalType": "address",
          "name": "",
          "type": "address"
        }
      ],
      "stateMutability": "view",
      "type": "function"
    },
    {
      "inputs": [],
      "name": "poolAddressProvider",
      "outputs": [
        {
          "internalType": "contract IPoolAddressesProvider",
          "name": "",
          "type": "address"
        }
      ],
      "stateMutability": "view",
      "type": "function"
    },
    {
      "inputs": [],
      "name": "priceFeedUsdc",
      "outputs": [
        {
          "internalType": "contract AggregatorV3Interface",
          "name": "",
          "type": "address"
        }
      ],
      "stateMutability": "view",
      "type": "function"
    },
    {
      "inputs": [],
      "name": "renounceOwnership",
      "outputs": [],
      "stateMutability": "nonpayable",
      "type": "function"
    },
    {
      "inputs": [
        {
          "internalType": "address",
          "name": "tokenIn",
          "type": "address"
        },
        {
          "internalType": "uint256",
          "name": "amountIn",
          "type": "uint256"
        },
        {
          "internalType": "address",
          "name": "borrowToken",
          "type": "address"
        },
        {
          "internalType": "uint24",
          "name": "slippage",
          "type": "uint24"
        },
        {
          "internalType": "uint24",
          "name": "poolFee",
          "type": "uint24"
        },
        {
          "internalType": "contract AggregatorV3Interface",
          "name": "priceFeed",
          "type": "address"
        },
        {
          "internalType": "uint256",
          "name": "interestRateMode",
          "type": "uint256"
        }
      ],
      "name": "swapRepay",
      "outputs": [],
      "stateMutability": "nonpayable",
      "type": "function"
    },
    {
      "inputs": [],
      "name": "swapRouter",
      "outputs": [
        {
          "internalType": "contract ISwapRouter",
          "name": "",
          "type": "address"
        }
      ],
      "stateMutability": "view",
      "type": "function"
    },
    {
      "inputs": [
        {
          "internalType": "address",
          "name": "newOwner",
          "type": "address"
        }
      ],
      "name": "transferOwnership",
      "outputs": [],
      "stateMutability": "nonpayable",
      "type": "function"
    }
  ],
  "bytecode": "0x60e06040523480156200001157600080fd5b506040516200183b3803806200183b8339810160408190526200003491620000c6565b6200003f336200005d565b6001600160a01b0392831660a05290821660c052166080526200011a565b600080546001600160a01b038381166001600160a01b0319831681178455604051919092169283917f8be0079c531659141344cd1fd0a4f28419497f9722a3daafe3b4186f6b6457e09190a35050565b6001600160a01b0381168114620000c357600080fd5b50565b600080600060608486031215620000dc57600080fd5b8351620000e981620000ad565b6020850151909350620000fc81620000ad565b60408501519092506200010f81620000ad565b809150509250925092565b60805160a05160c0516116d06200016b6000396000818161012701528181610bac0152610cb901526000818160bf0152818161025501526106f101526000818160820152610fcd01526116d06000f3fe608060405234801561001057600080fd5b50600436106100785760003560e01c80631b58f7071461007d57806362684616146100ba578063715018a6146100e15780637a0f21f3146100eb5780638da5cb5b146100fe578063b954fdd81461010f578063c31c9c0714610122578063f2fde38b14610149575b600080fd5b6100a47f000000000000000000000000000000000000000000000000000000000000000081565b6040516100b19190611151565b60405180910390f35b6100a47f000000000000000000000000000000000000000000000000000000000000000081565b6100e961015c565b005b6100e96100f9366004611192565b610170565b6000546001600160a01b03166100a4565b6100e961011d366004611212565b610609565b6100a47f000000000000000000000000000000000000000000000000000000000000000081565b6100e961015736600461129a565b610a81565b610164610afa565b61016e6000610b54565b565b610178610afa565b6040516323b872dd60e01b81526000906001600160a01b038916906323b872dd906101ab90339030908c906004016112b7565b6020604051808303816000875af11580156101ca573d6000803e3d6000fd5b505050506040513d601f19601f820116820180604052508101906101ee91906112db565b9050806102515760405162461bcd60e51b815260206004820152602660248201527f476f7648656c7065723a204661696c656420746f207472616e7366657220616d60448201526537bab73a24b760d11b60648201526084015b60405180910390fd5b60007f00000000000000000000000000000000000000000000000000000000000000006001600160a01b031663026b1d5f6040518163ffffffff1660e01b8152600401602060405180830381865afa1580156102b1573d6000803e3d6000fd5b505050506040513d601f19601f820116820180604052508101906102d59190611308565b90506000816001600160a01b03166335ea6a75896040518263ffffffff1660e01b81526004016103059190611151565b6101e060405180830381865afa158015610323573d6000803e3d6000fd5b505050506040513d601f19601f8201168201806040525081019061034791906113eb565b905060008161014001516001600160a01b03166370a082316103663390565b6040518263ffffffff1660e01b81526004016103829190611151565b602060405180830381865afa15801561039f573d6000803e3d6000fd5b505050506040513d601f19601f820116820180604052508101906103c3919061150e565b90506103d38b8b8b8b8b8b610ba4565b5060405163095ea7b360e01b81526001600160a01b038a169063095ea7b3906104029086908590600401611527565b6020604051808303816000875af1158015610421573d6000803e3d6000fd5b505050506040513d601f19601f8201168201806040525081019061044591906112db565b506040805163573ade8160e01b81526001600160a01b038b81166004830152602482018490526044820188905233606483015291519185169163573ade819160848082019260209290919082900301816000875af11580156104ab573d6000803e3d6000fd5b505050506040513d601f19601f820116820180604052508101906104cf919061150e565b5060008261014001516001600160a01b03166370a082316104ed3390565b6040518263ffffffff1660e01b81526004016105099190611151565b602060405180830381865afa158015610526573d6000803e3d6000fd5b505050506040513d601f19601f8201168201806040525081019061054a919061150e565b905080156105a45760405162461bcd60e51b815260206004820152602160248201527f476f7648656c7065723a204661696c656420746f2070617920616c6c206465626044820152601d60fa1b6064820152608401610248565b6105b18c8b8b8b8b610d34565b604080516001600160a01b038e81168252602082018e90528c168183015290517fe01ba5f4798e498cb96b812107b20186b8651658a592863462a76dfe9197a4e09181900360600190a1505050505050505050505050565b610611610afa565b6040516323b872dd60e01b81526000906001600160a01b038a16906323b872dd9061064490339030908d906004016112b7565b6020604051808303816000875af1158015610663573d6000803e3d6000fd5b505050506040513d601f19601f8201168201806040525081019061068791906112db565b9050806106ed5760405162461bcd60e51b815260206004820152602e60248201527f476f7648656c7065723a204661696c656420746f207472616e7366657220636f60448201526d1b1b185d195c985b105b5bdd5b9d60921b6064820152608401610248565b60007f00000000000000000000000000000000000000000000000000000000000000006001600160a01b031663026b1d5f6040518163ffffffff1660e01b8152600401602060405180830381865afa15801561074d573d6000803e3d6000fd5b505050506040513d601f19601f820116820180604052508101906107719190611308565b60405163095ea7b360e01b81529091506001600160a01b038b169063095ea7b3906107a29084908d90600401611527565b6020604051808303816000875af11580156107c1573d6000803e3d6000fd5b505050506040513d601f19601f820116820180604052508101906107e591906112db565b506040805163617ba03760e01b81526001600160a01b038c81166004830152602482018c905233604483015260006064830181905292519084169263617ba037926084808201939182900301818387803b15801561084257600080fd5b505af1158015610856573d6000803e3d6000fd5b50505050806001600160a01b031663a415bcad89898960006108753390565b60405160e087901b6001600160e01b03191681526001600160a01b0395861660048201526024810194909452604484019290925261ffff166064830152909116608482015260a401600060405180830381600087803b1580156108d757600080fd5b505af11580156108eb573d6000803e3d6000fd5b5050505060006108ff89898d88888b610ba4565b905060006001600160a01b038c1663a9059cbb33846040518363ffffffff1660e01b8152600401610931929190611527565b6020604051808303816000875af1158015610950573d6000803e3d6000fd5b505050506040513d601f19601f8201168201806040525081019061097491906112db565b9050806109935760405162461bcd60e51b815260040161024890611540565b6000876001600160a01b031663feaf968c6040518163ffffffff1660e01b815260040160a060405180830381865afa1580156109d3573d6000803e3d6000fd5b505050506040513d601f19601f820116820180604052508101906109f791906115a1565b5050509150507f0b8c826596c7911f823cb8caba49e275932a4a9189164b409b2dd9382b51a4508d8d8d8d8d86604051610a6a969594939291906001600160a01b03968716815260208101959095529290941660408401526060830152608082019290925260a081019190915260c00190565b60405180910390a150505050505050505050505050565b610a89610afa565b6001600160a01b038116610aee5760405162461bcd60e51b815260206004820152602660248201527f4f776e61626c653a206e6577206f776e657220697320746865207a65726f206160448201526564647265737360d01b6064820152608401610248565b610af781610b54565b50565b6000546001600160a01b0316331461016e5760405162461bcd60e51b815260206004820181905260248201527f4f776e61626c653a2063616c6c6572206973206e6f7420746865206f776e65726044820152606401610248565b600080546001600160a01b038381166001600160a01b0319831681178455604051919092169283917f8be0079c531659141344cd1fd0a4f28419497f9722a3daafe3b4186f6b6457e09190a35050565b6000610bd1877f000000000000000000000000000000000000000000000000000000000000000088610e54565b6000610bdd8388610f5e565b905060006040518061010001604052808a6001600160a01b03168152602001886001600160a01b031681526020018662ffffff168152602001306001600160a01b03168152602001428152602001898152602001610c3b84896110ab565b815260006020918201526040805163414bf38960e01b815283516001600160a01b03908116600483015292840151831660248201529083015162ffffff1660448201526060830151821660648201526080830151608482015260a083015160a482015260c083015160c482015260e0830151821660e48201529192507f0000000000000000000000000000000000000000000000000000000000000000169063414bf38990610104016020604051808303816000875af1158015610d03573d6000803e3d6000fd5b505050506040513d601f19601f82011682018060405250810190610d27919061150e565b9998505050505050505050565b6040516370a0823160e01b81526000906001600160a01b038616906370a0823190610d63903090600401611151565b602060405180830381865afa158015610d80573d6000803e3d6000fd5b505050506040513d601f19601f82011682018060405250810190610da4919061150e565b90506000610db6868389888888610ba4565b905060006001600160a01b03881663a9059cbb33846040518363ffffffff1660e01b8152600401610de8929190611527565b6020604051808303816000875af1158015610e07573d6000803e3d6000fd5b505050506040513d601f19601f82011682018060405250810190610e2b91906112db565b905080610e4a5760405162461bcd60e51b815260040161024890611540565b5050505050505050565b600080846001600160a01b031663095ea7b360e01b8585604051602401610e7c929190611527565b60408051601f198184030181529181526020820180516001600160e01b03166001600160e01b0319909416939093179092529051610eba91906115f1565b6000604051808303816000865af19150503d8060008114610ef7576040519150601f19603f3d011682016040523d82523d6000602084013e610efc565b606091505b5091509150818015610f26575080511580610f26575080806020019051810190610f2691906112db565b610f575760405162461bcd60e51b8152602060048201526002602482015261534160f01b6044820152606401610248565b5050505050565b600080836001600160a01b031663feaf968c6040518163ffffffff1660e01b815260040160a060405180830381865afa158015610f9f573d6000803e3d6000fd5b505050506040513d601f19601f82011682018060405250810190610fc391906115a1565b50505091505060007f00000000000000000000000000000000000000000000000000000000000000006001600160a01b031663feaf968c6040518163ffffffff1660e01b815260040160a060405180830381865afa158015611029573d6000803e3d6000fd5b505050506040513d601f19601f8201168201806040525081019061104d91906115a1565b505050915050600061107b61106d611064856110d7565b620f424061112d565b611076846110d7565b611139565b90506110a16110968661109184620f4240611139565b61112d565b64e8d4a51000611139565b9695505050505050565b60006110d0836110cb6110c3868662ffffff1661112d565b612710611139565b611145565b9392505050565b6000808212156111295760405162461bcd60e51b815260206004820181905260248201527f53616665436173743a2076616c7565206d75737420626520706f7369746976656044820152606401610248565b5090565b60006110d08284611642565b60006110d08284611661565b60006110d08284611683565b6001600160a01b0391909116815260200190565b6001600160a01b0381168114610af757600080fd5b803562ffffff8116811461118d57600080fd5b919050565b600080600080600080600060e0888a0312156111ad57600080fd5b87356111b881611165565b96506020880135955060408801356111cf81611165565b94506111dd6060890161117a565b93506111eb6080890161117a565b925060a08801356111fb81611165565b8092505060c0880135905092959891949750929550565b600080600080600080600080610100898b03121561122f57600080fd5b883561123a81611165565b975060208901359650604089013561125181611165565b9550606089013594506080890135935060a089013561126f81611165565b925061127d60c08a0161117a565b915061128b60e08a0161117a565b90509295985092959890939650565b6000602082840312156112ac57600080fd5b81356110d081611165565b6001600160a01b039384168152919092166020820152604081019190915260600190565b6000602082840312156112ed57600080fd5b815180151581146110d057600080fd5b805161118d81611165565b60006020828403121561131a57600080fd5b81516110d081611165565b6040516101e0810167ffffffffffffffff8111828210171561135757634e487b7160e01b600052604160045260246000fd5b60405290565b60006020828403121561136f57600080fd5b6040516020810181811067ffffffffffffffff821117156113a057634e487b7160e01b600052604160045260246000fd5b6040529151825250919050565b80516001600160801b038116811461118d57600080fd5b805164ffffffffff8116811461118d57600080fd5b805161ffff8116811461118d57600080fd5b60006101e082840312156113fe57600080fd5b611406611325565b611410848461135d565b815261141e602084016113ad565b602082015261142f604084016113ad565b6040820152611440606084016113ad565b6060820152611451608084016113ad565b608082015261146260a084016113ad565b60a082015261147360c084016113c4565b60c082015261148460e084016113d9565b60e08201526101006114978185016112fd565b908201526101206114a98482016112fd565b908201526101406114bb8482016112fd565b908201526101606114cd8482016112fd565b908201526101806114df8482016113ad565b908201526101a06114f18482016113ad565b908201526101c06115038482016113ad565b908201529392505050565b60006020828403121561152057600080fd5b5051919050565b6001600160a01b03929092168252602082015260400190565b60208082526027908201527f476f7648656c7065723a204661696c656420746f207472616e7366657220616d6040820152661bdd5b9d13dd5d60ca1b606082015260800190565b805169ffffffffffffffffffff8116811461118d57600080fd5b600080600080600060a086880312156115b957600080fd5b6115c286611587565b94506020860151935060408601519250606086015191506115e560808701611587565b90509295509295909350565b6000825160005b8181101561161257602081860181015185830152016115f8565b81811115611621576000828501525b509190910192915050565b634e487b7160e01b600052601160045260246000fd5b600081600019048311821515161561165c5761165c61162c565b500290565b60008261167e57634e487b7160e01b600052601260045260246000fd5b500490565b6000828210156116955761169561162c565b50039056fea264697066735822122028796ffb280380adbd9e6d8287bdb18ee48fcc503e2b6f7546de188553486ab764736f6c634300080a0033",
  "linkReferences": {},
  "deployedLinkReferences": {}
}