{
  "_format": "hh-sol-artifact-1",
  "contractName": "GovToken",
  "sourceName": "contracts/GovToken.sol",
  "abi": [
    {
      "inputs": [
        {
          "internalType": "string",
          "name": "_name",
          "type": "string"
        },
        {
          "internalType": "string",
          "name": "_symbol",
          "type": "string"
        }
      ],
      "stateMutability": "nonpayable",
      "type": "constructor"
    },
    {
      "anonymous": false,
      "inputs": [
        {
          "indexed": true,
          "internalType": "address",
          "name": "owner",
          "type": "address"
        },
        {
          "indexed": true,
          "internalType": "address",
          "name": "spender",
          "type": "address"
        },
        {
          "indexed": false,
          "internalType": "uint256",
          "name": "value",
          "type": "uint256"
        }
      ],
      "name": "Approval",
      "type": "event"
    },
    {
      "anonymous": false,
      "inputs": [
        {
          "indexed": true,
          "internalType": "address",
          "name": "delegator",
          "type": "address"
        },
        {
          "indexed": true,
          "internalType": "address",
          "name": "fromDelegate",
          "type": "address"
        },
        {
          "indexed": true,
          "internalType": "address",
          "name": "toDelegate",
          "type": "address"
        }
      ],
      "name": "DelegateChanged",
      "type": "event"
    },
    {
      "anonymous": false,
      "inputs": [
        {
          "indexed": true,
          "internalType": "address",
          "name": "delegate",
          "type": "address"
        },
        {
          "indexed": false,
          "internalType": "uint256",
          "name": "previousBalance",
          "type": "uint256"
        },
        {
          "indexed": false,
          "internalType": "uint256",
          "name": "newBalance",
          "type": "uint256"
        }
      ],
      "name": "DelegateVotesChanged",
      "type": "event"
    },
    {
      "anonymous": false,
      "inputs": [
        {
          "indexed": true,
          "internalType": "address",
          "name": "previousOwner",
          "type": "address"
        },
        {
          "indexed": true,
          "internalType": "address",
          "name": "newOwner",
          "type": "address"
        }
      ],
      "name": "OwnershipTransferred",
      "type": "event"
    },
    {
      "anonymous": false,
      "inputs": [
        {
          "indexed": true,
          "internalType": "address",
          "name": "from",
          "type": "address"
        },
        {
          "indexed": true,
          "internalType": "address",
          "name": "to",
          "type": "address"
        },
        {
          "indexed": false,
          "internalType": "uint256",
          "name": "value",
          "type": "uint256"
        }
      ],
      "name": "Transfer",
      "type": "event"
    },
    {
      "inputs": [],
      "name": "DOMAIN_SEPARATOR",
      "outputs": [
        {
          "internalType": "bytes32",
          "name": "",
          "type": "bytes32"
        }
      ],
      "stateMutability": "view",
      "type": "function"
    },
    {
      "inputs": [
        {
          "internalType": "address",
          "name": "owner",
          "type": "address"
        },
        {
          "internalType": "address",
          "name": "spender",
          "type": "address"
        }
      ],
      "name": "allowance",
      "outputs": [
        {
          "internalType": "uint256",
          "name": "",
          "type": "uint256"
        }
      ],
      "stateMutability": "view",
      "type": "function"
    },
    {
      "inputs": [
        {
          "internalType": "address",
          "name": "spender",
          "type": "address"
        },
        {
          "internalType": "uint256",
          "name": "amount",
          "type": "uint256"
        }
      ],
      "name": "approve",
      "outputs": [
        {
          "internalType": "bool",
          "name": "",
          "type": "bool"
        }
      ],
      "stateMutability": "nonpayable",
      "type": "function"
    },
    {
      "inputs": [
        {
          "internalType": "address",
          "name": "account",
          "type": "address"
        }
      ],
      "name": "balanceOf",
      "outputs": [
        {
          "internalType": "uint256",
          "name": "",
          "type": "uint256"
        }
      ],
      "stateMutability": "view",
      "type": "function"
    },
    {
      "inputs": [
        {
          "internalType": "uint256",
          "name": "amount",
          "type": "uint256"
        }
      ],
      "name": "burn",
      "outputs": [],
      "stateMutability": "nonpayable",
      "type": "function"
    },
    {
      "inputs": [
        {
          "internalType": "address",
          "name": "account",
          "type": "address"
        },
        {
          "internalType": "uint256",
          "name": "amount",
          "type": "uint256"
        }
      ],
      "name": "burnFrom",
      "outputs": [],
      "stateMutability": "nonpayable",
      "type": "function"
    },
    {
      "inputs": [
        {
          "internalType": "address",
          "name": "account",
          "type": "address"
        },
        {
          "internalType": "uint32",
          "name": "pos",
          "type": "uint32"
        }
      ],
      "name": "checkpoints",
      "outputs": [
        {
          "components": [
            {
              "internalType": "uint32",
              "name": "fromBlock",
              "type": "uint32"
            },
            {
              "internalType": "uint224",
              "name": "votes",
              "type": "uint224"
            }
          ],
          "internalType": "struct ERC20Votes.Checkpoint",
          "name": "",
          "type": "tuple"
        }
      ],
      "stateMutability": "view",
      "type": "function"
    },
    {
      "inputs": [],
      "name": "decimals",
      "outputs": [
        {
          "internalType": "uint8",
          "name": "",
          "type": "uint8"
        }
      ],
      "stateMutability": "view",
      "type": "function"
    },
    {
      "inputs": [
        {
          "internalType": "address",
          "name": "spender",
          "type": "address"
        },
        {
          "internalType": "uint256",
          "name": "subtractedValue",
          "type": "uint256"
        }
      ],
      "name": "decreaseAllowance",
      "outputs": [
        {
          "internalType": "bool",
          "name": "",
          "type": "bool"
        }
      ],
      "stateMutability": "nonpayable",
      "type": "function"
    },
    {
      "inputs": [
        {
          "internalType": "address",
          "name": "delegatee",
          "type": "address"
        }
      ],
      "name": "delegate",
      "outputs": [],
      "stateMutability": "nonpayable",
      "type": "function"
    },
    {
      "inputs": [
        {
          "internalType": "address",
          "name": "delegatee",
          "type": "address"
        },
        {
          "internalType": "uint256",
          "name": "nonce",
          "type": "uint256"
        },
        {
          "internalType": "uint256",
          "name": "expiry",
          "type": "uint256"
        },
        {
          "internalType": "uint8",
          "name": "v",
          "type": "uint8"
        },
        {
          "internalType": "bytes32",
          "name": "r",
          "type": "bytes32"
        },
        {
          "internalType": "bytes32",
          "name": "s",
          "type": "bytes32"
        }
      ],
      "name": "delegateBySig",
      "outputs": [],
      "stateMutability": "nonpayable",
      "type": "function"
    },
    {
      "inputs": [
        {
          "internalType": "address",
          "name": "account",
          "type": "address"
        }
      ],
      "name": "delegates",
      "outputs": [
        {
          "internalType": "address",
          "name": "",
          "type": "address"
        }
      ],
      "stateMutability": "view",
      "type": "function"
    },
    {
      "inputs": [
        {
          "internalType": "uint256",
          "name": "blockNumber",
          "type": "uint256"
        }
      ],
      "name": "getPastTotalSupply",
      "outputs": [
        {
          "internalType": "uint256",
          "name": "",
          "type": "uint256"
        }
      ],
      "stateMutability": "view",
      "type": "function"
    },
    {
      "inputs": [
        {
          "internalType": "address",
          "name": "account",
          "type": "address"
        },
        {
          "internalType": "uint256",
          "name": "blockNumber",
          "type": "uint256"
        }
      ],
      "name": "getPastVotes",
      "outputs": [
        {
          "internalType": "uint256",
          "name": "",
          "type": "uint256"
        }
      ],
      "stateMutability": "view",
      "type": "function"
    },
    {
      "inputs": [
        {
          "internalType": "address",
          "name": "account",
          "type": "address"
        }
      ],
      "name": "getVotes",
      "outputs": [
        {
          "internalType": "uint256",
          "name": "",
          "type": "uint256"
        }
      ],
      "stateMutability": "view",
      "type": "function"
    },
    {
      "inputs": [
        {
          "internalType": "address",
          "name": "spender",
          "type": "address"
        },
        {
          "internalType": "uint256",
          "name": "addedValue",
          "type": "uint256"
        }
      ],
      "name": "increaseAllowance",
      "outputs": [
        {
          "internalType": "bool",
          "name": "",
          "type": "bool"
        }
      ],
      "stateMutability": "nonpayable",
      "type": "function"
    },
    {
      "inputs": [
        {
          "internalType": "address",
          "name": "to",
          "type": "address"
        },
        {
          "internalType": "uint256",
          "name": "amount",
          "type": "uint256"
        }
      ],
      "name": "mint",
      "outputs": [],
      "stateMutability": "nonpayable",
      "type": "function"
    },
    {
      "inputs": [],
      "name": "name",
      "outputs": [
        {
          "internalType": "string",
          "name": "",
          "type": "string"
        }
      ],
      "stateMutability": "view",
      "type": "function"
    },
    {
      "inputs": [
        {
          "internalType": "address",
          "name": "owner",
          "type": "address"
        }
      ],
      "name": "nonces",
      "outputs": [
        {
          "internalType": "uint256",
          "name": "",
          "type": "uint256"
        }
      ],
      "stateMutability": "view",
      "type": "function"
    },
    {
      "inputs": [
        {
          "internalType": "address",
          "name": "account",
          "type": "address"
        }
      ],
      "name": "numCheckpoints",
      "outputs": [
        {
          "internalType": "uint32",
          "name": "",
          "type": "uint32"
        }
      ],
      "stateMutability": "view",
      "type": "function"
    },
    {
      "inputs": [],
      "name": "owner",
      "outputs": [
        {
          "internalType": "address",
          "name": "",
          "type": "address"
        }
      ],
      "stateMutability": "view",
      "type": "function"
    },
    {
      "inputs": [
        {
          "internalType": "address",
          "name": "owner",
          "type": "address"
        },
        {
          "internalType": "address",
          "name": "spender",
          "type": "address"
        },
        {
          "internalType": "uint256",
          "name": "value",
          "type": "uint256"
        },
        {
          "internalType": "uint256",
          "name": "deadline",
          "type": "uint256"
        },
        {
          "internalType": "uint8",
          "name": "v",
          "type": "uint8"
        },
        {
          "internalType": "bytes32",
          "name": "r",
          "type": "bytes32"
        },
        {
          "internalType": "bytes32",
          "name": "s",
          "type": "bytes32"
        }
      ],
      "name": "permit",
      "outputs": [],
      "stateMutability": "nonpayable",
      "type": "function"
    },
    {
      "inputs": [],
      "name": "renounceOwnership",
      "outputs": [],
      "stateMutability": "nonpayable",
      "type": "function"
    },
    {
      "inputs": [],
      "name": "symbol",
      "outputs": [
        {
          "internalType": "string",
          "name": "",
          "type": "string"
        }
      ],
      "stateMutability": "view",
      "type": "function"
    },
    {
      "inputs": [],
      "name": "totalSupply",
      "outputs": [
        {
          "internalType": "uint256",
          "name": "",
          "type": "uint256"
        }
      ],
      "stateMutability": "view",
      "type": "function"
    },
    {
      "inputs": [
        {
          "internalType": "address",
          "name": "to",
          "type": "address"
        },
        {
          "internalType": "uint256",
          "name": "amount",
          "type": "uint256"
        }
      ],
      "name": "transfer",
      "outputs": [
        {
          "internalType": "bool",
          "name": "",
          "type": "bool"
        }
      ],
      "stateMutability": "nonpayable",
      "type": "function"
    },
    {
      "inputs": [
        {
          "internalType": "address",
          "name": "from",
          "type": "address"
        },
        {
          "internalType": "address",
          "name": "to",
          "type": "address"
        },
        {
          "internalType": "uint256",
          "name": "amount",
          "type": "uint256"
        }
      ],
      "name": "transferFrom",
      "outputs": [
        {
          "internalType": "bool",
          "name": "",
          "type": "bool"
        }
      ],
      "stateMutability": "nonpayable",
      "type": "function"
    },
    {
      "inputs": [
        {
          "internalType": "address",
          "name": "newOwner",
          "type": "address"
        }
      ],
      "name": "transferOwnership",
      "outputs": [],
      "stateMutability": "nonpayable",
      "type": "function"
    }
  ],
  "bytecode": "0x6101406040523480156200001257600080fd5b50604051620023dd380380620023dd8339810160408190526200003591620002fd565b8180604051806040016040528060018152602001603160f81b81525084846200006d620000676200013660201b60201c565b6200013a565b8151620000829060049060208501906200018a565b508051620000989060059060208401906200018a565b5050825160208085019190912083518483012060e08290526101008190524660a0818152604080517f8b73c3c69bb8fe3d512ecc4cf759cc79239f7b179b0ffacaa9a75d522b39400f81880181905281830187905260608201869052608082019490945230818401528151808203909301835260c0019052805194019390932091935091906080523060c0526101205250620003a495505050505050565b3390565b600080546001600160a01b038381166001600160a01b0319831681178455604051919092169283917f8be0079c531659141344cd1fd0a4f28419497f9722a3daafe3b4186f6b6457e09190a35050565b828054620001989062000367565b90600052602060002090601f016020900481019282620001bc576000855562000207565b82601f10620001d757805160ff191683800117855562000207565b8280016001018555821562000207579182015b8281111562000207578251825591602001919060010190620001ea565b506200021592915062000219565b5090565b5b808211156200021557600081556001016200021a565b634e487b7160e01b600052604160045260246000fd5b600082601f8301126200025857600080fd5b81516001600160401b038082111562000275576200027562000230565b604051601f8301601f19908116603f01168101908282118183101715620002a057620002a062000230565b81604052838152602092508683858801011115620002bd57600080fd5b600091505b83821015620002e15785820183015181830184015290820190620002c2565b83821115620002f35760008385830101525b9695505050505050565b600080604083850312156200031157600080fd5b82516001600160401b03808211156200032957600080fd5b620003378683870162000246565b935060208501519150808211156200034e57600080fd5b506200035d8582860162000246565b9150509250929050565b600181811c908216806200037c57607f821691505b602082108114156200039e57634e487b7160e01b600052602260045260246000fd5b50919050565b60805160a05160c05160e0516101005161012051611fe9620003f46000396000610ed601526000610f2501526000610f0001526000610e5901526000610e8301526000610ead0152611fe96000f3fe608060405234801561001057600080fd5b50600436106101845760003560e01c8063715018a6116100d9578063a457c2d711610087578063a457c2d714610350578063a9059cbb14610363578063c3cda52014610376578063d505accf14610389578063dd62ed3e1461039c578063f1127ed8146103af578063f2fde38b146103ec57600080fd5b8063715018a6146102e357806379cc6790146102eb5780637ecebe00146102fe5780638da5cb5b146103115780638e539e8c1461032257806395d89b41146103355780639ab24eb01461033d57600080fd5b80633a46b1a8116101365780633a46b1a81461021957806340c10f191461022c57806342966c6814610241578063587cde1e146102545780635c19a95c1461027f5780636fcfff451461029257806370a08231146102ba57600080fd5b806306fdde0314610189578063095ea7b3146101a757806318160ddd146101ca57806323b872dd146101dc578063313ce567146101ef5780633644e515146101fe5780633950935114610206575b600080fd5b6101916103ff565b60405161019e9190611c2d565b60405180910390f35b6101ba6101b5366004611c9e565b610491565b604051901515815260200161019e565b6003545b60405190815260200161019e565b6101ba6101ea366004611cc8565b6104a9565b6040516012815260200161019e565b6101ce6104cd565b6101ba610214366004611c9e565b6104dc565b6101ce610227366004611c9e565b6104fe565b61023f61023a366004611c9e565b610551565b005b61023f61024f366004611d04565b610567565b610267610262366004611d1d565b610574565b6040516001600160a01b03909116815260200161019e565b61023f61028d366004611d1d565b610592565b6102a56102a0366004611d1d565b61059c565b60405163ffffffff909116815260200161019e565b6101ce6102c8366004611d1d565b6001600160a01b031660009081526001602052604090205490565b61023f6105c4565b61023f6102f9366004611c9e565b6105d8565b6101ce61030c366004611d1d565b6105ed565b6000546001600160a01b0316610267565b6101ce610330366004611d04565b61060b565b610191610637565b6101ce61034b366004611d1d565b610646565b6101ba61035e366004611c9e565b6106cc565b6101ba610371366004611c9e565b610747565b61023f610384366004611d49565b610755565b61023f610397366004611da1565b610887565b6101ce6103aa366004611e0b565b6109eb565b6103c26103bd366004611e3e565b610a16565b60408051825163ffffffff1681526020928301516001600160e01b0316928101929092520161019e565b61023f6103fa366004611d1d565b610a99565b60606004805461040e90611e7e565b80601f016020809104026020016040519081016040528092919081815260200182805461043a90611e7e565b80156104875780601f1061045c57610100808354040283529160200191610487565b820191906000526020600020905b81548152906001019060200180831161046a57829003601f168201915b5050505050905090565b60003361049f818585610b0f565b5060019392505050565b6000336104b7858285610c33565b6104c2858585610cad565b506001949350505050565b60006104d7610e4c565b905090565b60003361049f8185856104ef83836109eb565b6104f99190611ec9565b610b0f565b60004382106105285760405162461bcd60e51b815260040161051f90611ee1565b60405180910390fd5b6001600160a01b038316600090815260096020526040902061054a9083610f73565b9392505050565b610559611069565b61056382826110c3565b5050565b61057133826110cd565b50565b6001600160a01b039081166000908152600860205260409020541690565b61057133826110d7565b6001600160a01b0381166000908152600960205260408120546105be9061116d565b92915050565b6105cc611069565b6105d660006111d6565b565b6105e3823383610c33565b61056382826110cd565b6001600160a01b0381166000908152600660205260408120546105be565b600043821061062c5760405162461bcd60e51b815260040161051f90611ee1565b6105be600a83610f73565b60606005805461040e90611e7e565b6001600160a01b03811660009081526009602052604081205480156106b9576001600160a01b0383166000908152600960205260409020610688600183611f18565b8154811061069857610698611f2f565b600091825260209091200154600160201b90046001600160e01b03166106bc565b60005b6001600160e01b03169392505050565b600033816106da82866109eb565b90508381101561073a5760405162461bcd60e51b815260206004820152602560248201527f45524332303a2064656372656173656420616c6c6f77616e63652062656c6f77604482015264207a65726f60d81b606482015260840161051f565b6104c28286868403610b0f565b60003361049f818585610cad565b834211156107a55760405162461bcd60e51b815260206004820152601d60248201527f4552433230566f7465733a207369676e61747572652065787069726564000000604482015260640161051f565b604080517fe48329057bfd03d55e49b547132e39cffd9c1820ad7b9d4c5307691425d15adf60208201526001600160a01b03881691810191909152606081018690526080810185905260009061081f906108179060a00160405160208183030381529060405280519060200120611226565b858585611274565b905061082a8161129c565b86146108745760405162461bcd60e51b81526020600482015260196024820152784552433230566f7465733a20696e76616c6964206e6f6e636560381b604482015260640161051f565b61087e81886110d7565b50505050505050565b834211156108d75760405162461bcd60e51b815260206004820152601d60248201527f45524332305065726d69743a206578706972656420646561646c696e65000000604482015260640161051f565b60007f6e71edae12b1b97f4d1f60370fef10105fa2faae0126114a169c64845d6126c98888886109068c61129c565b6040805160208101969096526001600160a01b0394851690860152929091166060840152608083015260a082015260c0810186905260e001604051602081830303815290604052805190602001209050600061096182611226565b9050600061097182878787611274565b9050896001600160a01b0316816001600160a01b0316146109d45760405162461bcd60e51b815260206004820152601e60248201527f45524332305065726d69743a20696e76616c6964207369676e61747572650000604482015260640161051f565b6109df8a8a8a610b0f565b50505050505050505050565b6001600160a01b03918216600090815260026020908152604080832093909416825291909152205490565b60408051808201909152600080825260208201526001600160a01b0383166000908152600960205260409020805463ffffffff8416908110610a5a57610a5a611f2f565b60009182526020918290206040805180820190915291015463ffffffff81168252600160201b90046001600160e01b0316918101919091529392505050565b610aa1611069565b6001600160a01b038116610b065760405162461bcd60e51b815260206004820152602660248201527f4f776e61626c653a206e6577206f776e657220697320746865207a65726f206160448201526564647265737360d01b606482015260840161051f565b610571816111d6565b6001600160a01b038316610b715760405162461bcd60e51b8152602060048201526024808201527f45524332303a20617070726f76652066726f6d20746865207a65726f206164646044820152637265737360e01b606482015260840161051f565b6001600160a01b038216610bd25760405162461bcd60e51b815260206004820152602260248201527f45524332303a20617070726f766520746f20746865207a65726f206164647265604482015261737360f01b606482015260840161051f565b6001600160a01b0383811660008181526002602090815260408083209487168084529482529182902085905590518481527f8c5be1e5ebec7d5bd14f71427d1e84f3dd0314c0f7b2291e5b200ac8c7c3b925910160405180910390a3505050565b6000610c3f84846109eb565b90506000198114610ca75781811015610c9a5760405162461bcd60e51b815260206004820152601d60248201527f45524332303a20696e73756666696369656e7420616c6c6f77616e6365000000604482015260640161051f565b610ca78484848403610b0f565b50505050565b6001600160a01b038316610d115760405162461bcd60e51b815260206004820152602560248201527f45524332303a207472616e736665722066726f6d20746865207a65726f206164604482015264647265737360d81b606482015260840161051f565b6001600160a01b038216610d735760405162461bcd60e51b815260206004820152602360248201527f45524332303a207472616e7366657220746f20746865207a65726f206164647260448201526265737360e81b606482015260840161051f565b6001600160a01b03831660009081526001602052604090205481811015610deb5760405162461bcd60e51b815260206004820152602660248201527f45524332303a207472616e7366657220616d6f756e7420657863656564732062604482015265616c616e636560d01b606482015260840161051f565b6001600160a01b038085166000818152600160205260408082208686039055928616808252908390208054860190559151600080516020611f9483398151915290610e399086815260200190565b60405180910390a3610ca78484846112c9565b6000306001600160a01b037f000000000000000000000000000000000000000000000000000000000000000016148015610ea557507f000000000000000000000000000000000000000000000000000000000000000046145b15610ecf57507f000000000000000000000000000000000000000000000000000000000000000090565b50604080517f00000000000000000000000000000000000000000000000000000000000000006020808301919091527f0000000000000000000000000000000000000000000000000000000000000000828401527f000000000000000000000000000000000000000000000000000000000000000060608301524660808301523060a0808401919091528351808403909101815260c0909201909252805191012090565b815460009081816005811115610fcd576000610f8e846112d4565b610f989085611f18565b600088815260209020909150869082015463ffffffff161115610fbd57809150610fcb565b610fc8816001611ec9565b92505b505b8082101561101a576000610fe183836113b9565b600088815260209020909150869082015463ffffffff16111561100657809150611014565b611011816001611ec9565b92505b50610fcd565b80156110535761103d8661102f600184611f18565b600091825260209091200190565b54600160201b90046001600160e01b0316611056565b60005b6001600160e01b03169695505050505050565b6000546001600160a01b031633146105d65760405162461bcd60e51b815260206004820181905260248201527f4f776e61626c653a2063616c6c6572206973206e6f7420746865206f776e6572604482015260640161051f565b61056382826113d4565b610563828261145e565b60006110e283610574565b90506000611105846001600160a01b031660009081526001602052604090205490565b6001600160a01b0385811660008181526008602052604080822080546001600160a01b031916898616908117909155905194955093928616927f3134e8a2e6d97e929a7e54011ea5485d7d196dd5f0ba4d4ef95803e8e3fc257f9190a4610ca7828483611476565b600063ffffffff8211156111d25760405162461bcd60e51b815260206004820152602660248201527f53616665436173743a2076616c756520646f65736e27742066697420696e203360448201526532206269747360d01b606482015260840161051f565b5090565b600080546001600160a01b038381166001600160a01b0319831681178455604051919092169283917f8be0079c531659141344cd1fd0a4f28419497f9722a3daafe3b4186f6b6457e09190a35050565b60006105be611233610e4c565b8360405161190160f01b6020820152602281018390526042810182905260009060620160405160208183030381529060405280519060200120905092915050565b6000806000611285878787876115b3565b915091506112928161166d565b5095945050505050565b6001600160a01b03811660009081526006602052604090208054600181018255905b50919050565b505050565b6112c48383836117b6565b6000816112e357506000919050565b600060016112f0846117d1565b901c6001901b9050600181848161130957611309611f45565b048201901c9050600181848161132157611321611f45565b048201901c9050600181848161133957611339611f45565b048201901c9050600181848161135157611351611f45565b048201901c9050600181848161136957611369611f45565b048201901c9050600181848161138157611381611f45565b048201901c9050600181848161139957611399611f45565b048201901c905061054a818285816113b3576113b3611f45565b04611865565b60006113c86002848418611f5b565b61054a90848416611ec9565b6113de828261187b565b6003546001600160e01b0310156114505760405162461bcd60e51b815260206004820152603060248201527f4552433230566f7465733a20746f74616c20737570706c79207269736b73206f60448201526f766572666c6f77696e6720766f74657360801b606482015260840161051f565b610ca7600a6119328361193e565b6114688282611a8f565b610ca7600a611bb88361193e565b816001600160a01b0316836001600160a01b0316141580156114985750600081115b156112c4576001600160a01b03831615611526576001600160a01b038316600090815260096020526040812081906114d390611bb88561193e565b91509150846001600160a01b03167fdec2bacdd2f05b59de34da9b523dff8be42e5e38e818c82fdb0bae774387a724838360405161151b929190918252602082015260400190565b60405180910390a250505b6001600160a01b038216156112c4576001600160a01b0382166000908152600960205260408120819061155c906119328561193e565b91509150836001600160a01b03167fdec2bacdd2f05b59de34da9b523dff8be42e5e38e818c82fdb0bae774387a72483836040516115a4929190918252602082015260400190565b60405180910390a25050505050565b6000806fa2a8918ca85bafe22016d0b997e4df60600160ff1b038311156115e05750600090506003611664565b6040805160008082526020820180845289905260ff881692820192909252606081018690526080810185905260019060a0016020604051602081039080840390855afa158015611634573d6000803e3d6000fd5b5050604051601f1901519150506001600160a01b03811661165d57600060019250925050611664565b9150600090505b94509492505050565b600081600481111561168157611681611f7d565b141561168a5750565b600181600481111561169e5761169e611f7d565b14156116e75760405162461bcd60e51b815260206004820152601860248201527745434453413a20696e76616c6964207369676e617475726560401b604482015260640161051f565b60028160048111156116fb576116fb611f7d565b14156117495760405162461bcd60e51b815260206004820152601f60248201527f45434453413a20696e76616c6964207369676e6174757265206c656e67746800604482015260640161051f565b600381600481111561175d5761175d611f7d565b14156105715760405162461bcd60e51b815260206004820152602260248201527f45434453413a20696e76616c6964207369676e6174757265202773272076616c604482015261756560f01b606482015260840161051f565b6112c46117c284610574565b6117cb84610574565b83611476565b600080608083901c156117e657608092831c92015b604083901c156117f857604092831c92015b602083901c1561180a57602092831c92015b601083901c1561181c57601092831c92015b600883901c1561182e57600892831c92015b600483901c1561184057600492831c92015b600283901c1561185257600292831c92015b600183901c156105be5760010192915050565b6000818310611874578161054a565b5090919050565b6001600160a01b0382166118d15760405162461bcd60e51b815260206004820152601f60248201527f45524332303a206d696e7420746f20746865207a65726f206164647265737300604482015260640161051f565b80600360008282546118e39190611ec9565b90915550506001600160a01b038216600081815260016020908152604080832080548601905551848152600080516020611f94833981519152910160405180910390a3610563600083836112c9565b600061054a8284611ec9565b8254600090819081811561198a5761195b8761102f600185611f18565b60408051808201909152905463ffffffff81168252600160201b90046001600160e01b0316602082015261199f565b60408051808201909152600080825260208201525b905080602001516001600160e01b031693506119bf84868863ffffffff16565b92506000821180156119d75750805163ffffffff1643145b15611a1b576119e583611bc4565b6119f48861102f600186611f18565b80546001600160e01b0392909216600160201b0263ffffffff909216919091179055611a85565b866040518060400160405280611a304361116d565b63ffffffff168152602001611a4486611bc4565b6001600160e01b039081169091528254600181018455600093845260209384902083519490930151909116600160201b0263ffffffff909316929092179101555b5050935093915050565b6001600160a01b038216611aef5760405162461bcd60e51b815260206004820152602160248201527f45524332303a206275726e2066726f6d20746865207a65726f206164647265736044820152607360f81b606482015260840161051f565b6001600160a01b03821660009081526001602052604090205481811015611b635760405162461bcd60e51b815260206004820152602260248201527f45524332303a206275726e20616d6f756e7420657863656564732062616c616e604482015261636560f01b606482015260840161051f565b6001600160a01b0383166000818152600160209081526040808320868603905560038054879003905551858152919291600080516020611f94833981519152910160405180910390a36112c4836000846112c9565b600061054a8284611f18565b60006001600160e01b038211156111d25760405162461bcd60e51b815260206004820152602760248201527f53616665436173743a2076616c756520646f65736e27742066697420696e20326044820152663234206269747360c81b606482015260840161051f565b600060208083528351808285015260005b81811015611c5a57858101830151858201604001528201611c3e565b81811115611c6c576000604083870101525b50601f01601f1916929092016040019392505050565b80356001600160a01b0381168114611c9957600080fd5b919050565b60008060408385031215611cb157600080fd5b611cba83611c82565b946020939093013593505050565b600080600060608486031215611cdd57600080fd5b611ce684611c82565b9250611cf460208501611c82565b9150604084013590509250925092565b600060208284031215611d1657600080fd5b5035919050565b600060208284031215611d2f57600080fd5b61054a82611c82565b803560ff81168114611c9957600080fd5b60008060008060008060c08789031215611d6257600080fd5b611d6b87611c82565b95506020870135945060408701359350611d8760608801611d38565b92506080870135915060a087013590509295509295509295565b600080600080600080600060e0888a031215611dbc57600080fd5b611dc588611c82565b9650611dd360208901611c82565b95506040880135945060608801359350611def60808901611d38565b925060a0880135915060c0880135905092959891949750929550565b60008060408385031215611e1e57600080fd5b611e2783611c82565b9150611e3560208401611c82565b90509250929050565b60008060408385031215611e5157600080fd5b611e5a83611c82565b9150602083013563ffffffff81168114611e7357600080fd5b809150509250929050565b600181811c90821680611e9257607f821691505b602082108114156112be57634e487b7160e01b600052602260045260246000fd5b634e487b7160e01b600052601160045260246000fd5b60008219821115611edc57611edc611eb3565b500190565b6020808252601f908201527f4552433230566f7465733a20626c6f636b206e6f7420796574206d696e656400604082015260600190565b600082821015611f2a57611f2a611eb3565b500390565b634e487b7160e01b600052603260045260246000fd5b634e487b7160e01b600052601260045260246000fd5b600082611f7857634e487b7160e01b600052601260045260246000fd5b500490565b634e487b7160e01b600052602160045260246000fdfeddf252ad1be2c89b69c2b068fc378daa952ba7f163c4a11628f55a4df523b3efa2646970667358221220457528b0474af7034945d332ea7be2071ad25fa3c392dda11fdc7a02367cfa9c64736f6c634300080a0033",
  "linkReferences": {},
  "deployedLinkReferences": {}
}